{"contracts/TicketNFT.sol":{"TicketNFT":{"abi":[{"inputs":[{"internalType":"string","name":"uri_","type":"string"}],"stateMutability":"nonpayable","type":"constructor"},{"inputs":[],"name":"AccessControlBadConfirmation","type":"error"},{"inputs":[{"internalType":"address","name":"account","type":"address"},{"internalType":"bytes32","name":"neededRole","type":"bytes32"}],"name":"AccessControlUnauthorizedAccount","type":"error"},{"inputs":[{"internalType":"address","name":"sender","type":"address"},{"internalType":"uint256","name":"balance","type":"uint256"},{"internalType":"uint256","name":"needed","type":"uint256"},{"internalType":"uint256","name":"tokenId","type":"uint256"}],"name":"ERC1155InsufficientBalance","type":"error"},{"inputs":[{"internalType":"address","name":"approver","type":"address"}],"name":"ERC1155InvalidApprover","type":"error"},{"inputs":[{"internalType":"uint256","name":"idsLength","type":"uint256"},{"internalType":"uint256","name":"valuesLength","type":"uint256"}],"name":"ERC1155InvalidArrayLength","type":"error"},{"inputs":[{"internalType":"address","name":"operator","type":"address"}],"name":"ERC1155InvalidOperator","type":"error"},{"inputs":[{"internalType":"address","name":"receiver","type":"address"}],"name":"ERC1155InvalidReceiver","type":"error"},{"inputs":[{"internalType":"address","name":"sender","type":"address"}],"name":"ERC1155InvalidSender","type":"error"},{"inputs":[{"internalType":"address","name":"operator","type":"address"},{"internalType":"address","name":"owner","type":"address"}],"name":"ERC1155MissingApprovalForAll","type":"error"},{"inputs":[],"name":"EnforcedPause","type":"error"},{"inputs":[],"name":"ExpectedPause","type":"error"},{"inputs":[],"name":"ReentrancyGuardReentrantCall","type":"error"},{"anonymous":false,"inputs":[{"indexed":true,"internalType":"address","name":"account","type":"address"},{"indexed":true,"internalType":"address","name":"operator","type":"address"},{"indexed":false,"internalType":"bool","name":"approved","type":"bool"}],"name":"ApprovalForAll","type":"event"},{"anonymous":false,"inputs":[{"indexed":false,"internalType":"address","name":"account","type":"address"}],"name":"Paused","type":"event"},{"anonymous":false,"inputs":[{"indexed":true,"internalType":"bytes32","name":"role","type":"bytes32"},{"indexed":true,"internalType":"bytes32","name":"previousAdminRole","type":"bytes32"},{"indexed":true,"internalType":"bytes32","name":"newAdminRole","type":"bytes32"}],"name":"RoleAdminChanged","type":"event"},{"anonymous":false,"inputs":[{"indexed":true,"internalType":"bytes32","name":"role","type":"bytes32"},{"indexed":true,"internalType":"address","name":"account","type":"address"},{"indexed":true,"internalType":"address","name":"sender","type":"address"}],"name":"RoleGranted","type":"event"},{"anonymous":false,"inputs":[{"indexed":true,"internalType":"bytes32","name":"role","type":"bytes32"},{"indexed":true,"internalType":"address","name":"account","type":"address"},{"indexed":true,"internalType":"address","name":"sender","type":"address"}],"name":"RoleRevoked","type":"event"},{"anonymous":false,"inputs":[{"indexed":true,"internalType":"uint256","name":"tokenId","type":"uint256"},{"indexed":false,"internalType":"address","name":"receiver","type":"address"},{"indexed":false,"internalType":"uint96","name":"royaltyFraction","type":"uint96"}],"name":"RoyaltySet","type":"event"},{"anonymous":false,"inputs":[{"indexed":true,"internalType":"address","name":"from","type":"address"},{"indexed":true,"internalType":"uint256","name":"tokenId","type":"uint256"},{"indexed":false,"internalType":"uint256","name":"amount","type":"uint256"}],"name":"TicketBurned","type":"event"},{"anonymous":false,"inputs":[{"indexed":true,"internalType":"address","name":"to","type":"address"},{"indexed":true,"internalType":"uint256","name":"tokenId","type":"uint256"},{"indexed":false,"internalType":"uint256","name":"amount","type":"uint256"}],"name":"TicketMinted","type":"event"},{"anonymous":false,"inputs":[{"indexed":true,"internalType":"uint256","name":"tokenId","type":"uint256"},{"indexed":false,"internalType":"uint256","name":"maxSupply","type":"uint256"},{"indexed":false,"internalType":"string","name":"uri","type":"string"}],"name":"TokenCreated","type":"event"},{"anonymous":false,"inputs":[{"indexed":true,"internalType":"address","name":"operator","type":"address"},{"indexed":true,"internalType":"address","name":"from","type":"address"},{"indexed":true,"internalType":"address","name":"to","type":"address"},{"indexed":false,"internalType":"uint256[]","name":"ids","type":"uint256[]"},{"indexed":false,"internalType":"uint256[]","name":"values","type":"uint256[]"}],"name":"TransferBatch","type":"event"},{"anonymous":false,"inputs":[{"indexed":true,"internalType":"address","name":"operator","type":"address"},{"indexed":true,"internalType":"address","name":"from","type":"address"},{"indexed":true,"internalType":"address","name":"to","type":"address"},{"indexed":false,"internalType":"uint256","name":"id","type":"uint256"},{"indexed":false,"internalType":"uint256","name":"value","type":"uint256"}],"name":"TransferSingle","type":"event"},{"anonymous":false,"inputs":[{"indexed":false,"internalType":"string","name":"value","type":"string"},{"indexed":true,"internalType":"uint256","name":"id","type":"uint256"}],"name":"URI","type":"event"},{"anonymous":false,"inputs":[{"indexed":false,"internalType":"address","name":"account","type":"address"}],"name":"Unpaused","type":"event"},{"inputs":[],"name":"DEFAULT_ADMIN_ROLE","outputs":[{"internalType":"bytes32","name":"","type":"bytes32"}],"stateMutability":"view","type":"function"},{"inputs":[],"name":"MINTER_ROLE","outputs":[{"internalType":"bytes32","name":"","type":"bytes32"}],"stateMutability":"view","type":"function"},{"inputs":[],"name":"PAUSER_ROLE","outputs":[{"internalType":"bytes32","name":"","type":"bytes32"}],"stateMutability":"view","type":"function"},{"inputs":[{"internalType":"uint256","name":"tokenId","type":"uint256"}],"name":"availableSupply","outputs":[{"internalType":"uint256","name":"","type":"uint256"}],"stateMutability":"view","type":"function"},{"inputs":[{"internalType":"address","name":"account","type":"address"},{"internalType":"uint256","name":"id","type":"uint256"}],"name":"balanceOf","outputs":[{"internalType":"uint256","name":"","type":"uint256"}],"stateMutability":"view","type":"function"},{"inputs":[{"internalType":"address[]","name":"accounts","type":"address[]"},{"internalType":"uint256[]","name":"ids","type":"uint256[]"}],"name":"balanceOfBatch","outputs":[{"internalType":"uint256[]","name":"","type":"uint256[]"}],"stateMutability":"view","type":"function"},{"inputs":[{"internalType":"address","name":"from","type":"address"},{"internalType":"uint256","name":"tokenId","type":"uint256"},{"internalType":"uint256","name":"amount","type":"uint256"}],"name":"burn","outputs":[],"stateMutability":"nonpayable","type":"function"},{"inputs":[{"internalType":"uint256","name":"tokenId","type":"uint256"},{"internalType":"uint256","name":"maxSupply","type":"uint256"},{"internalType":"string","name":"tokenURI","type":"string"}],"name":"createToken","outputs":[],"stateMutability":"nonpayable","type":"function"},{"inputs":[{"internalType":"uint256","name":"id","type":"uint256"}],"name":"exists","outputs":[{"internalType":"bool","name":"","type":"bool"}],"stateMutability":"view","type":"function"},{"inputs":[{"internalType":"bytes32","name":"role","type":"bytes32"}],"name":"getRoleAdmin","outputs":[{"internalType":"bytes32","name":"","type":"bytes32"}],"stateMutability":"view","type":"function"},{"inputs":[{"internalType":"bytes32","name":"role","type":"bytes32"},{"internalType":"address","name":"account","type":"address"}],"name":"grantRole","outputs":[],"stateMutability":"nonpayable","type":"function"},{"inputs":[{"internalType":"bytes32","name":"role","type":"bytes32"},{"internalType":"address","name":"account","type":"address"}],"name":"hasRole","outputs":[{"internalType":"bool","name":"","type":"bool"}],"stateMutability":"view","type":"function"},{"inputs":[{"internalType":"address","name":"account","type":"address"},{"internalType":"address","name":"operator","type":"address"}],"name":"isApprovedForAll","outputs":[{"internalType":"bool","name":"","type":"bool"}],"stateMutability":"view","type":"function"},{"inputs":[{"internalType":"uint256","name":"tokenId","type":"uint256"}],"name":"maxSupply","outputs":[{"internalType":"uint256","name":"","type":"uint256"}],"stateMutability":"view","type":"function"},{"inputs":[{"internalType":"address","name":"to","type":"address"},{"internalType":"uint256","name":"tokenId","type":"uint256"},{"internalType":"uint256","name":"amount","type":"uint256"}],"name":"mint","outputs":[],"stateMutability":"nonpayable","type":"function"},{"inputs":[{"internalType":"address","name":"to","type":"address"},{"internalType":"uint256[]","name":"tokenIds","type":"uint256[]"},{"internalType":"uint256[]","name":"amounts","type":"uint256[]"}],"name":"mintBatch","outputs":[],"stateMutability":"nonpayable","type":"function"},{"inputs":[],"name":"name","outputs":[{"internalType":"string","name":"","type":"string"}],"stateMutability":"view","type":"function"},{"inputs":[],"name":"pause","outputs":[],"stateMutability":"nonpayable","type":"function"},{"inputs":[],"name":"paused","outputs":[{"internalType":"bool","name":"","type":"bool"}],"stateMutability":"view","type":"function"},{"inputs":[{"internalType":"bytes32","name":"role","type":"bytes32"},{"internalType":"address","name":"callerConfirmation","type":"address"}],"name":"renounceRole","outputs":[],"stateMutability":"nonpayable","type":"function"},{"inputs":[{"internalType":"bytes32","name":"role","type":"bytes32"},{"internalType":"address","name":"account","type":"address"}],"name":"revokeRole","outputs":[],"stateMutability":"nonpayable","type":"function"},{"inputs":[{"internalType":"uint256","name":"tokenId","type":"uint256"},{"internalType":"uint256","name":"salePrice","type":"uint256"}],"name":"royaltyInfo","outputs":[{"internalType":"address","name":"receiver","type":"address"},{"internalType":"uint256","name":"royaltyAmount","type":"uint256"}],"stateMutability":"view","type":"function"},{"inputs":[{"internalType":"address","name":"from","type":"address"},{"internalType":"address","name":"to","type":"address"},{"internalType":"uint256[]","name":"ids","type":"uint256[]"},{"internalType":"uint256[]","name":"values","type":"uint256[]"},{"internalType":"bytes","name":"data","type":"bytes"}],"name":"safeBatchTransferFrom","outputs":[],"stateMutability":"nonpayable","type":"function"},{"inputs":[{"internalType":"address","name":"from","type":"address"},{"internalType":"address","name":"to","type":"address"},{"internalType":"uint256","name":"id","type":"uint256"},{"internalType":"uint256","name":"value","type":"uint256"},{"internalType":"bytes","name":"data","type":"bytes"}],"name":"safeTransferFrom","outputs":[],"stateMutability":"nonpayable","type":"function"},{"inputs":[{"internalType":"address","name":"operator","type":"address"},{"internalType":"bool","name":"approved","type":"bool"}],"name":"setApprovalForAll","outputs":[],"stateMutability":"nonpayable","type":"function"},{"inputs":[{"internalType":"uint256","name":"tokenId","type":"uint256"},{"internalType":"address","name":"receiver","type":"address"},{"internalType":"uint96","name":"royaltyFraction","type":"uint96"}],"name":"setRoyalty","outputs":[],"stateMutability":"nonpayable","type":"function"},{"inputs":[{"internalType":"bytes4","name":"interfaceId","type":"bytes4"}],"name":"supportsInterface","outputs":[{"internalType":"bool","name":"","type":"bool"}],"stateMutability":"view","type":"function"},{"inputs":[],"name":"symbol","outputs":[{"internalType":"string","name":"","type":"string"}],"stateMutability":"view","type":"function"},{"inputs":[],"name":"totalSupply","outputs":[{"internalType":"uint256","name":"","type":"uint256"}],"stateMutability":"view","type":"function"},{"inputs":[{"internalType":"uint256","name":"id","type":"uint256"}],"name":"totalSupply","outputs":[{"internalType":"uint256","name":"","type":"uint256"}],"stateMutability":"view","type":"function"},{"inputs":[],"name":"unpause","outputs":[],"stateMutability":"nonpayable","type":"function"},{"inputs":[{"internalType":"uint256","name":"tokenId","type":"uint256"}],"name":"uri","outputs":[{"internalType":"string","name":"","type":"string"}],"stateMutability":"view","type":"function"}],"evm":{"bytecode":{"linkReferences":{},"object":"60c0604052600f60809081526e151a58dad95d10da185a5b88139195608a1b60a05260089062000030908262000279565b50604080518082019091526006815265151250d2d15560d21b60208201526009906200005d908262000279565b503480156200006b57600080fd5b5060405162002aca38038062002aca8339810160408190526200008e9162000345565b806200009a816200010f565b506001600755620000ad60003362000121565b50620000da7f9f2df0fed2c77648de5860a4cc508cd0818c85b8b8a1ab4ceeef8d981c8956a63362000121565b50620001077f65d7a28e3265b37a6474929f336521b332c1681b933f6cb9f3376673440d862a3362000121565b50506200041a565b60026200011d828262000279565b5050565b60008281526005602090815260408083206001600160a01b038516845290915281205460ff16620001ca5760008381526005602090815260408083206001600160a01b03861684529091529020805460ff19166001179055620001813390565b6001600160a01b0316826001600160a01b0316847f2f8788117e7eff1d82e926ec794901d17c78024a50270940304540a733656f0d60405160405180910390a4506001620001ce565b5060005b92915050565b634e487b7160e01b600052604160045260246000fd5b600181811c90821680620001ff57607f821691505b6020821081036200022057634e487b7160e01b600052602260045260246000fd5b50919050565b601f8211156200027457600081815260208120601f850160051c810160208610156200024f5750805b601f850160051c820191505b8181101562000270578281556001016200025b565b5050505b505050565b81516001600160401b03811115620002955762000295620001d4565b620002ad81620002a68454620001ea565b8462000226565b602080601f831160018114620002e55760008415620002cc5750858301515b600019600386901b1c1916600185901b17855562000270565b600085815260208120601f198616915b828110156200031657888601518255948401946001909101908401620002f5565b5085821015620003355787850151600019600388901b60f8161c191681555b5050505050600190811b01905550565b600060208083850312156200035957600080fd5b82516001600160401b03808211156200037157600080fd5b818501915085601f8301126200038657600080fd5b8151818111156200039b576200039b620001d4565b604051601f8201601f19908116603f01168101908382118183101715620003c657620003c6620001d4565b816040528281528886848701011115620003df57600080fd5b600093505b82841015620004035784840186015181850187015292850192620003e4565b600086848301015280965050505050505092915050565b6126a0806200042a6000396000f3fe608060405234801561001057600080fd5b50600436106101ef5760003560e01c806380c8d6901161010f578063d5391393116100a2578063e63ab1e911610071578063e63ab1e914610457578063e985e9c51461047e578063f242432a14610491578063f5298aca146104a457600080fd5b8063d539139314610409578063d547741f1461041e578063d5c32ca414610431578063d81d0a151461044457600080fd5b806395d89b41116100de57806395d89b41146103c6578063a217fddf146103ce578063a22cb465146103d6578063bd85b039146103e957600080fd5b806380c8d690146103785780638456cb591461038b578063869f75941461039357806391d14854146103b357600080fd5b80632eb2c2d6116101875780634e1273f4116101565780634e1273f4146103185780634f558e79146103385780635c975abb1461035a5780635f78f4361461036557600080fd5b80632eb2c2d6146102d75780632f2ff15d146102ea57806336568abe146102fd5780633f4ba83a1461031057600080fd5b8063156e29f6116101c3578063156e29f61461026557806318160ddd1461027a578063248a9ca3146102825780632a55205a146102a557600080fd5b8062fdd58e146101f457806301ffc9a71461021a57806306fdde031461023d5780630e89341c14610252575b600080fd5b610207610202366004611d24565b6104b7565b6040519081526020015b60405180910390f35b61022d610228366004611d64565b6104df565b6040519015158152602001610211565b610245610504565b6040516102119190611dc7565b610245610260366004611dda565b610592565b610278610273366004611df3565b610650565b005b600454610207565b610207610290366004611dda565b60009081526005602052604090206001015490565b6102b86102b3366004611e26565b6107fd565b604080516001600160a01b039093168352602083019190915201610211565b6102786102e5366004611f96565b610887565b6102786102f8366004612040565b6108ee565b61027861030b366004612040565b610913565b61027861094b565b61032b61032636600461206c565b610980565b6040516102119190612167565b61022d610346366004611dda565b600090815260036020526040902054151590565b60065460ff1661022d565b61027861037336600461217a565b610a55565b6102786103863660046121de565b610b80565b610278610cb3565b6102076103a1366004611dda565b6000908152600b602052604090205490565b61022d6103c1366004612040565b610ce5565b610245610d10565b610207600081565b6102786103e436600461222a565b610d1d565b6102076103f7366004611dda565b60009081526003602052604090205490565b61020760008051602061264b83398151915281565b61027861042c366004612040565b610d2c565b61020761043f366004611dda565b610d51565b610278610452366004612266565b610d8b565b6102077f65d7a28e3265b37a6474929f336521b332c1681b933f6cb9f3376673440d862a81565b61022d61048c3660046122d0565b611062565b61027861049f3660046122fa565b611090565b6102786104b2366004611df3565b6110ef565b6000818152602081815260408083206001600160a01b03861684529091529020545b92915050565b60006001600160e01b0319821663152a902d60e11b14806104d957506104d9826111ab565b600880546105119061235f565b80601f016020809104026020016040519081016040528092919081815260200182805461053d9061235f565b801561058a5780601f1061055f5761010080835404028352916020019161058a565b820191906000526020600020905b81548152906001019060200180831161056d57829003601f168201915b505050505081565b6000818152600a60205260408120805460609291906105b09061235f565b80601f01602080910402602001604051908101604052809291908181526020018280546105dc9061235f565b80156106295780601f106105fe57610100808354040283529160200191610629565b820191906000526020600020905b81548152906001019060200180831161060c57829003601f168201915b50505050509050600081511161064757610642836111d0565b610649565b805b9392505050565b60008051602061264b83398151915261066881611264565b61067061126e565b610678611294565b6001600160a01b0384166106d35760405162461bcd60e51b815260206004820152601b60248201527f43616e6e6f74206d696e7420746f207a65726f2061646472657373000000000060448201526064015b60405180910390fd5b6000838152600b60205260409020546107255760405162461bcd60e51b8152602060048201526014602482015273151bdad95b88191bd95cc81b9bdd08195e1a5cdd60621b60448201526064016106ca565b6000838152600b602090815260408083205460039092529091205461074b9084906123af565b111561078e5760405162461bcd60e51b815260206004820152601260248201527145786365656473206d617820737570706c7960701b60448201526064016106ca565b6107a9848484604051806020016040528060008152506112be565b82846001600160a01b03167fcbea9c23945e351434f7ae5b1a435091cc278dd9dd0eba4c04203674014ca7d7846040516107e591815260200190565b60405180910390a36107f76001600755565b50505050565b6000828152600c602090815260408083208151808301909252546001600160a01b038116808352600160a01b9091046001600160601b031692820192909252829161084f576000809250925050610880565b600061271082602001516001600160601b03168661086d91906123c2565b61087791906123d9565b91519350909150505b9250929050565b336001600160a01b03861681148015906108a857506108a68682611062565b155b156108d95760405163711bec9160e11b81526001600160a01b038083166004830152871660248201526044016106ca565b6108e6868686868661131b565b505050505050565b60008281526005602052604090206001015461090981611264565b6107f78383611382565b6001600160a01b038116331461093c5760405163334bd91960e11b815260040160405180910390fd5b6109468282611416565b505050565b7f65d7a28e3265b37a6474929f336521b332c1681b933f6cb9f3376673440d862a61097581611264565b61097d611483565b50565b606081518351146109b15781518351604051635b05999160e01b8152600481019290925260248201526044016106ca565b6000835167ffffffffffffffff8111156109cd576109cd611e48565b6040519080825280602002602001820160405280156109f6578160200160208202803683370190505b50905060005b8451811015610a4d57602080820286010151610a20906020808402870101516104b7565b828281518110610a3257610a326123fb565b6020908102919091010152610a4681612411565b90506109fc565b509392505050565b60008051602061264b833981519152610a6d81611264565b6000848152600b602052604090205415610ac05760405162461bcd60e51b8152602060048201526014602482015273546f6b656e20616c72656164792065786973747360601b60448201526064016106ca565b60008311610b1a5760405162461bcd60e51b815260206004820152602160248201527f4d617820737570706c79206d7573742062652067726561746572207468616e206044820152600360fc1b60648201526084016106ca565b6000848152600b60209081526040808320869055600a9091529020610b3f8382612470565b50837f32eea7039f743570a6b30307011091d44eeee7f935e6f21ac6fd582b8c3d620b8484604051610b72929190612530565b60405180910390a250505050565b6000610b8b81611264565b6001600160a01b038316610be15760405162461bcd60e51b815260206004820152601860248201527f496e76616c69642072656365697665722061646472657373000000000000000060448201526064016106ca565b612710826001600160601b03161115610c2f5760405162461bcd60e51b815260206004820152601060248201526f0a4def2c2d8e8f240e8dede40d0d2ced60831b60448201526064016106ca565b6040805180820182526001600160a01b038581168083526001600160601b03868116602080860182815260008c8152600c835288902096519051909316600160a01b02929094169190911790935583519081529081019190915285917f93c3d3c02f3e5b8ff28a98e2ff5dc3d9395f4f02af3a830c3789c8af254202539101610b72565b7f65d7a28e3265b37a6474929f336521b332c1681b933f6cb9f3376673440d862a610cdd81611264565b61097d6114d5565b60009182526005602090815260408084206001600160a01b0393909316845291905290205460ff1690565b600980546105119061235f565b610d28338383611512565b5050565b600082815260056020526040902060010154610d4781611264565b6107f78383611416565b6000818152600b60209081526040808320546003909252822054808211610d79576000610d83565b610d838183612549565b949350505050565b60008051602061264b833981519152610da381611264565b610dab61126e565b610db3611294565b6001600160a01b038416610e095760405162461bcd60e51b815260206004820152601b60248201527f43616e6e6f74206d696e7420746f207a65726f2061646472657373000000000060448201526064016106ca565b8151835114610e535760405162461bcd60e51b8152602060048201526016602482015275082e4e4c2f2e640d8cadccee8d040dad2e6dac2e8c6d60531b60448201526064016106ca565b60005b8351811015610fa7576000600b6000868481518110610e7757610e776123fb565b602002602001015181526020019081526020016000205411610ed25760405162461bcd60e51b8152602060048201526014602482015273151bdad95b88191bd95cc81b9bdd08195e1a5cdd60621b60448201526064016106ca565b600b6000858381518110610ee857610ee86123fb565b6020026020010151815260200190815260200160002054838281518110610f1157610f116123fb565b6020026020010151610f48868481518110610f2e57610f2e6123fb565b602002602001015160009081526003602052604090205490565b610f5291906123af565b1115610f955760405162461bcd60e51b815260206004820152601260248201527145786365656473206d617820737570706c7960701b60448201526064016106ca565b80610f9f81612411565b915050610e56565b50610fc3848484604051806020016040528060008152506115a0565b60005b835181101561105757838181518110610fe157610fe16123fb565b6020026020010151856001600160a01b03167fcbea9c23945e351434f7ae5b1a435091cc278dd9dd0eba4c04203674014ca7d7858481518110611026576110266123fb565b602002602001015160405161103d91815260200190565b60405180910390a38061104f81612411565b915050610fc6565b506107f76001600755565b6001600160a01b03918216600090815260016020908152604080832093909416825291909152205460ff1690565b336001600160a01b03861681148015906110b157506110af8682611062565b155b156110e25760405163711bec9160e11b81526001600160a01b038083166004830152871660248201526044016106ca565b6108e686868686866115d8565b6001600160a01b03831633148061110b575061110b8333611062565b6111575760405162461bcd60e51b815260206004820181905260248201527f43616c6c6572206973206e6f74206f776e6572206e6f7220617070726f76656460448201526064016106ca565b611162838383611666565b81836001600160a01b03167f6065a8850c5813614b41368663e05eb6c2244539c572b55da7b9c0ed65bf10e88360405161119e91815260200190565b60405180910390a3505050565b60006001600160e01b03198216637965db0b60e01b14806104d957506104d9826116ce565b6060600280546111df9061235f565b80601f016020809104026020016040519081016040528092919081815260200182805461120b9061235f565b80156112585780601f1061122d57610100808354040283529160200191611258565b820191906000526020600020905b81548152906001019060200180831161123b57829003601f168201915b50505050509050919050565b61097d813361171e565b60065460ff16156112925760405163d93c066560e01b815260040160405180910390fd5b565b6002600754036112b757604051633ee5aeb560e01b815260040160405180910390fd5b6002600755565b6001600160a01b0384166112e857604051632bfa23e760e11b8152600060048201526024016106ca565b604080516001808252602082018690528183019081526060820185905260808201909252906108e6600087848487611757565b6001600160a01b03841661134557604051632bfa23e760e11b8152600060048201526024016106ca565b6001600160a01b03851661136e57604051626a0d4560e21b8152600060048201526024016106ca565b61137b8585858585611757565b5050505050565b600061138e8383610ce5565b61140e5760008381526005602090815260408083206001600160a01b03861684529091529020805460ff191660011790556113c63390565b6001600160a01b0316826001600160a01b0316847f2f8788117e7eff1d82e926ec794901d17c78024a50270940304540a733656f0d60405160405180910390a45060016104d9565b5060006104d9565b60006114228383610ce5565b1561140e5760008381526005602090815260408083206001600160a01b0386168085529252808320805460ff1916905551339286917ff6391f5c32d9c69d2a47ea670b442974b53935d1edc7fd64eb21e047a839171b9190a45060016104d9565b61148b6117aa565b6006805460ff191690557f5db9ee0a495bf2e6ff9c91a7834c1ba4fdd244a5e8aa4e537bd38aeae4b073aa335b6040516001600160a01b03909116815260200160405180910390a1565b6114dd61126e565b6006805460ff191660011790557f62e78cea01bee320cd4e420270b5ea74000d11b0c9f74754ebdbfc544b05a2586114b83390565b6001600160a01b03821661153b5760405162ced3e160e81b8152600060048201526024016106ca565b6001600160a01b03838116600081815260016020908152604080832094871680845294825291829020805460ff191686151590811790915591519182527f17307eab39ab6107e8899845ad3d59bd9653f200f220920489ca2b5937696c31910161119e565b6001600160a01b0384166115ca57604051632bfa23e760e11b8152600060048201526024016106ca565b6107f7600085858585611757565b6001600160a01b03841661160257604051632bfa23e760e11b8152600060048201526024016106ca565b6001600160a01b03851661162b57604051626a0d4560e21b8152600060048201526024016106ca565b6040805160018082526020820186905281830190815260608201859052608082019092529061165d8787848487611757565b50505050505050565b6001600160a01b03831661168f57604051626a0d4560e21b8152600060048201526024016106ca565b604080516001808252602082018590528183019081526060820184905260a0820190925260006080820181815291929161137b91879185908590611757565b60006001600160e01b03198216636cdb3d1360e11b14806116ff57506001600160e01b031982166303a24d0760e21b145b806104d957506301ffc9a760e01b6001600160e01b03198316146104d9565b6117288282610ce5565b610d285760405163e2517d3f60e01b81526001600160a01b0382166004820152602481018390526044016106ca565b611763858585856117cd565b6001600160a01b0384161561137b578251339060010361179c57602084810151908401516117958389898585896117e1565b50506108e6565b6108e6818787878787611905565b60065460ff1661129257604051638dfc202b60e01b815260040160405180910390fd5b6117d561126e565b6107f7848484846119ee565b6001600160a01b0384163b156108e65760405163f23a6e6160e01b81526001600160a01b0385169063f23a6e6190611825908990899088908890889060040161255c565b6020604051808303816000875af1925050508015611860575060408051601f3d908101601f1916820190925261185d918101906125a1565b60015b6118c9573d80801561188e576040519150601f19603f3d011682016040523d82523d6000602084013e611893565b606091505b5080516000036118c157604051632bfa23e760e11b81526001600160a01b03861660048201526024016106ca565b805160208201fd5b6001600160e01b0319811663f23a6e6160e01b1461165d57604051632bfa23e760e11b81526001600160a01b03861660048201526024016106ca565b6001600160a01b0384163b156108e65760405163bc197c8160e01b81526001600160a01b0385169063bc197c819061194990899089908890889088906004016125be565b6020604051808303816000875af1925050508015611984575060408051601f3d908101601f19168201909252611981918101906125a1565b60015b6119b2573d80801561188e576040519150601f19603f3d011682016040523d82523d6000602084013e611893565b6001600160e01b0319811663bc197c8160e01b1461165d57604051632bfa23e760e11b81526001600160a01b03861660048201526024016106ca565b6119fa84848484611aeb565b6001600160a01b038416611a83576000805b8351811015611a695760208181028481018201519086018201516000908152600390925260408220805491928392611a459084906123af565b90915550611a55905081846123af565b92505080611a6290612411565b9050611a0c565b508060046000828254611a7c91906123af565b9091555050505b6001600160a01b0383166107f7576000805b8351811015611ada576020818102848101820151908601820151600090815260039092526040909120805482900390559190910190611ad381612411565b9050611a95565b506004805491909103905550505050565b8051825114611b1a5781518151604051635b05999160e01b8152600481019290925260248201526044016106ca565b3360005b8351811015611c29576020818102858101820151908501909101516001600160a01b03881615611bd1576000828152602081815260408083206001600160a01b038c16845290915290205481811015611baa576040516303dee4c560e01b81526001600160a01b038a1660048201526024810182905260448101839052606481018490526084016106ca565b6000838152602081815260408083206001600160a01b038d16845290915290209082900390555b6001600160a01b03871615611c16576000828152602081815260408083206001600160a01b038b16845290915281208054839290611c109084906123af565b90915550505b505080611c2290612411565b9050611b1e565b508251600103611caa5760208301516000906020840151909150856001600160a01b0316876001600160a01b0316846001600160a01b03167fc3d58168c5ae7397731d063d5bbf3d657854427343f4c083240f7aacaa2d0f628585604051611c9b929190918252602082015260400190565b60405180910390a4505061137b565b836001600160a01b0316856001600160a01b0316826001600160a01b03167f4a39dc06d4c0dbc64b70af90fd698a233a518aa5d07e595d983b8c0526c8f7fb8686604051611cf992919061261c565b60405180910390a45050505050565b80356001600160a01b0381168114611d1f57600080fd5b919050565b60008060408385031215611d3757600080fd5b611d4083611d08565b946020939093013593505050565b6001600160e01b03198116811461097d57600080fd5b600060208284031215611d7657600080fd5b813561064981611d4e565b6000815180845260005b81811015611da757602081850181015186830182015201611d8b565b506000602082860101526020601f19601f83011685010191505092915050565b6020815260006106496020830184611d81565b600060208284031215611dec57600080fd5b5035919050565b600080600060608486031215611e0857600080fd5b611e1184611d08565b95602085013595506040909401359392505050565b60008060408385031215611e3957600080fd5b50508035926020909101359150565b634e487b7160e01b600052604160045260246000fd5b604051601f8201601f1916810167ffffffffffffffff81118282101715611e8757611e87611e48565b604052919050565b600067ffffffffffffffff821115611ea957611ea9611e48565b5060051b60200190565b600082601f830112611ec457600080fd5b81356020611ed9611ed483611e8f565b611e5e565b82815260059290921b84018101918181019086841115611ef857600080fd5b8286015b84811015611f135780358352918301918301611efc565b509695505050505050565b600067ffffffffffffffff831115611f3857611f38611e48565b611f4b601f8401601f1916602001611e5e565b9050828152838383011115611f5f57600080fd5b828260208301376000602084830101529392505050565b600082601f830112611f8757600080fd5b61064983833560208501611f1e565b600080600080600060a08688031215611fae57600080fd5b611fb786611d08565b9450611fc560208701611d08565b9350604086013567ffffffffffffffff80821115611fe257600080fd5b611fee89838a01611eb3565b9450606088013591508082111561200457600080fd5b61201089838a01611eb3565b9350608088013591508082111561202657600080fd5b5061203388828901611f76565b9150509295509295909350565b6000806040838503121561205357600080fd5b8235915061206360208401611d08565b90509250929050565b6000806040838503121561207f57600080fd5b823567ffffffffffffffff8082111561209757600080fd5b818501915085601f8301126120ab57600080fd5b813560206120bb611ed483611e8f565b82815260059290921b840181019181810190898411156120da57600080fd5b948201945b838610156120ff576120f086611d08565b825294820194908201906120df565b9650508601359250508082111561211557600080fd5b5061212285828601611eb3565b9150509250929050565b600081518084526020808501945080840160005b8381101561215c57815187529582019590820190600101612140565b509495945050505050565b602081526000610649602083018461212c565b60008060006060848603121561218f57600080fd5b8335925060208401359150604084013567ffffffffffffffff8111156121b457600080fd5b8401601f810186136121c557600080fd5b6121d486823560208401611f1e565b9150509250925092565b6000806000606084860312156121f357600080fd5b8335925061220360208501611d08565b915060408401356001600160601b038116811461221f57600080fd5b809150509250925092565b6000806040838503121561223d57600080fd5b61224683611d08565b91506020830135801515811461225b57600080fd5b809150509250929050565b60008060006060848603121561227b57600080fd5b61228484611d08565b9250602084013567ffffffffffffffff808211156122a157600080fd5b6122ad87838801611eb3565b935060408601359150808211156122c357600080fd5b506121d486828701611eb3565b600080604083850312156122e357600080fd5b6122ec83611d08565b915061206360208401611d08565b600080600080600060a0868803121561231257600080fd5b61231b86611d08565b945061232960208701611d08565b93506040860135925060608601359150608086013567ffffffffffffffff81111561235357600080fd5b61203388828901611f76565b600181811c9082168061237357607f821691505b60208210810361239357634e487b7160e01b600052602260045260246000fd5b50919050565b634e487b7160e01b600052601160045260246000fd5b808201808211156104d9576104d9612399565b80820281158282048414176104d9576104d9612399565b6000826123f657634e487b7160e01b600052601260045260246000fd5b500490565b634e487b7160e01b600052603260045260246000fd5b60006001820161242357612423612399565b5060010190565b601f82111561094657600081815260208120601f850160051c810160208610156124515750805b601f850160051c820191505b818110156108e65782815560010161245d565b815167ffffffffffffffff81111561248a5761248a611e48565b61249e81612498845461235f565b8461242a565b602080601f8311600181146124d357600084156124bb5750858301515b600019600386901b1c1916600185901b1785556108e6565b600085815260208120601f198616915b82811015612502578886015182559484019460019091019084016124e3565b50858210156125205787850151600019600388901b60f8161c191681555b5050505050600190811b01905550565b828152604060208201526000610d836040830184611d81565b818103818111156104d9576104d9612399565b6001600160a01b03868116825285166020820152604081018490526060810183905260a06080820181905260009061259690830184611d81565b979650505050505050565b6000602082840312156125b357600080fd5b815161064981611d4e565b6001600160a01b0386811682528516602082015260a0604082018190526000906125ea9083018661212c565b82810360608401526125fc818661212c565b905082810360808401526126108185611d81565b98975050505050505050565b60408152600061262f604083018561212c565b8281036020840152612641818561212c565b9594505050505056fe9f2df0fed2c77648de5860a4cc508cd0818c85b8b8a1ab4ceeef8d981c8956a6a2646970667358221220eb38421e9a1025e6d50ae10c7731973a3fa67a6d0a8c9b059631592ba6b1ae9064736f6c63430008140033","opcodes":"PUSH1 0xC0 PUSH1 0x40 MSTORE PUSH1 0xF PUSH1 0x80 SWAP1 DUP2 MSTORE PUSH15 0x151A58DAD95D10DA185A5B88139195 PUSH1 0x8A SHL PUSH1 0xA0 MSTORE PUSH1 0x8 SWAP1 PUSH3 0x30 SWAP1 DUP3 PUSH3 0x279 JUMP JUMPDEST POP PUSH1 0x40 DUP1 MLOAD DUP1 DUP3 ADD SWAP1 SWAP2 MSTORE PUSH1 0x6 DUP2 MSTORE PUSH6 0x151250D2D155 PUSH1 0xD2 SHL PUSH1 0x20 DUP3 ADD MSTORE PUSH1 0x9 SWAP1 PUSH3 0x5D SWAP1 DUP3 PUSH3 0x279 JUMP JUMPDEST POP CALLVALUE DUP1 ISZERO PUSH3 0x6B JUMPI PUSH1 0x0 DUP1 REVERT JUMPDEST POP PUSH1 0x40 MLOAD PUSH3 0x2ACA CODESIZE SUB DUP1 PUSH3 0x2ACA DUP4 CODECOPY DUP2 ADD PUSH1 0x40 DUP2 SWAP1 MSTORE PUSH3 0x8E SWAP2 PUSH3 0x345 JUMP JUMPDEST DUP1 PUSH3 0x9A DUP2 PUSH3 0x10F JUMP JUMPDEST POP PUSH1 0x1 PUSH1 0x7 SSTORE PUSH3 0xAD PUSH1 0x0 CALLER PUSH3 0x121 JUMP JUMPDEST POP PUSH3 0xDA PUSH32 0x9F2DF0FED2C77648DE5860A4CC508CD0818C85B8B8A1AB4CEEEF8D981C8956A6 CALLER PUSH3 0x121 JUMP JUMPDEST POP PUSH3 0x107 PUSH32 0x65D7A28E3265B37A6474929F336521B332C1681B933F6CB9F3376673440D862A CALLER PUSH3 0x121 JUMP JUMPDEST POP POP PUSH3 0x41A JUMP JUMPDEST PUSH1 0x2 PUSH3 0x11D DUP3 DUP3 PUSH3 0x279 JUMP JUMPDEST POP POP JUMP JUMPDEST PUSH1 0x0 DUP3 DUP2 MSTORE PUSH1 0x5 PUSH1 0x20 SWAP1 DUP2 MSTORE PUSH1 0x40 DUP1 DUP4 KECCAK256 PUSH1 0x1 PUSH1 0x1 PUSH1 0xA0 SHL SUB DUP6 AND DUP5 MSTORE SWAP1 SWAP2 MSTORE DUP2 KECCAK256 SLOAD PUSH1 0xFF AND PUSH3 0x1CA JUMPI PUSH1 0x0 DUP4 DUP2 MSTORE PUSH1 0x5 PUSH1 0x20 SWAP1 DUP2 MSTORE PUSH1 0x40 DUP1 DUP4 KECCAK256 PUSH1 0x1 PUSH1 0x1 PUSH1 0xA0 SHL SUB DUP7 AND DUP5 MSTORE SWAP1 SWAP2 MSTORE SWAP1 KECCAK256 DUP1 SLOAD PUSH1 0xFF NOT AND PUSH1 0x1 OR SWAP1 SSTORE PUSH3 0x181 CALLER SWAP1 JUMP JUMPDEST PUSH1 0x1 PUSH1 0x1 PUSH1 0xA0 SHL SUB AND DUP3 PUSH1 0x1 PUSH1 0x1 PUSH1 0xA0 SHL SUB AND DUP5 PUSH32 0x2F8788117E7EFF1D82E926EC794901D17C78024A50270940304540A733656F0D PUSH1 0x40 MLOAD PUSH1 0x40 MLOAD DUP1 SWAP2 SUB SWAP1 LOG4 POP PUSH1 0x1 PUSH3 0x1CE JUMP JUMPDEST POP PUSH1 0x0 JUMPDEST SWAP3 SWAP2 POP POP JUMP JUMPDEST PUSH4 0x4E487B71 PUSH1 0xE0 SHL PUSH1 0x0 MSTORE PUSH1 0x41 PUSH1 0x4 MSTORE PUSH1 0x24 PUSH1 0x0 REVERT JUMPDEST PUSH1 0x1 DUP2 DUP2 SHR SWAP1 DUP3 AND DUP1 PUSH3 0x1FF JUMPI PUSH1 0x7F DUP3 AND SWAP2 POP JUMPDEST PUSH1 0x20 DUP3 LT DUP2 SUB PUSH3 0x220 JUMPI PUSH4 0x4E487B71 PUSH1 0xE0 SHL PUSH1 0x0 MSTORE PUSH1 0x22 PUSH1 0x4 MSTORE PUSH1 0x24 PUSH1 0x0 REVERT JUMPDEST POP SWAP2 SWAP1 POP JUMP JUMPDEST PUSH1 0x1F DUP3 GT ISZERO PUSH3 0x274 JUMPI PUSH1 0x0 DUP2 DUP2 MSTORE PUSH1 0x20 DUP2 KECCAK256 PUSH1 0x1F DUP6 ADD PUSH1 0x5 SHR DUP2 ADD PUSH1 0x20 DUP7 LT ISZERO PUSH3 0x24F JUMPI POP DUP1 JUMPDEST PUSH1 0x1F DUP6 ADD PUSH1 0x5 SHR DUP3 ADD SWAP2 POP JUMPDEST DUP2 DUP2 LT ISZERO PUSH3 0x270 JUMPI DUP3 DUP2 SSTORE PUSH1 0x1 ADD PUSH3 0x25B JUMP JUMPDEST POP POP POP JUMPDEST POP POP POP JUMP JUMPDEST DUP2 MLOAD PUSH1 0x1 PUSH1 0x1 PUSH1 0x40 SHL SUB DUP2 GT ISZERO PUSH3 0x295 JUMPI PUSH3 0x295 PUSH3 0x1D4 JUMP JUMPDEST PUSH3 0x2AD DUP2 PUSH3 0x2A6 DUP5 SLOAD PUSH3 0x1EA JUMP JUMPDEST DUP5 PUSH3 0x226 JUMP JUMPDEST PUSH1 0x20 DUP1 PUSH1 0x1F DUP4 GT PUSH1 0x1 DUP2 EQ PUSH3 0x2E5 JUMPI PUSH1 0x0 DUP5 ISZERO PUSH3 0x2CC JUMPI POP DUP6 DUP4 ADD MLOAD JUMPDEST PUSH1 0x0 NOT PUSH1 0x3 DUP7 SWAP1 SHL SHR NOT AND PUSH1 0x1 DUP6 SWAP1 SHL OR DUP6 SSTORE PUSH3 0x270 JUMP JUMPDEST PUSH1 0x0 DUP6 DUP2 MSTORE PUSH1 0x20 DUP2 KECCAK256 PUSH1 0x1F NOT DUP7 AND SWAP2 JUMPDEST DUP3 DUP2 LT ISZERO PUSH3 0x316 JUMPI DUP9 DUP7 ADD MLOAD DUP3 SSTORE SWAP5 DUP5 ADD SWAP5 PUSH1 0x1 SWAP1 SWAP2 ADD SWAP1 DUP5 ADD PUSH3 0x2F5 JUMP JUMPDEST POP DUP6 DUP3 LT ISZERO PUSH3 0x335 JUMPI DUP8 DUP6 ADD MLOAD PUSH1 0x0 NOT PUSH1 0x3 DUP9 SWAP1 SHL PUSH1 0xF8 AND SHR NOT AND DUP2 SSTORE JUMPDEST POP POP POP POP POP PUSH1 0x1 SWAP1 DUP2 SHL ADD SWAP1 SSTORE POP JUMP JUMPDEST PUSH1 0x0 PUSH1 0x20 DUP1 DUP4 DUP6 SUB SLT ISZERO PUSH3 0x359 JUMPI PUSH1 0x0 DUP1 REVERT JUMPDEST DUP3 MLOAD PUSH1 0x1 PUSH1 0x1 PUSH1 0x40 SHL SUB DUP1 DUP3 GT ISZERO PUSH3 0x371 JUMPI PUSH1 0x0 DUP1 REVERT JUMPDEST DUP2 DUP6 ADD SWAP2 POP DUP6 PUSH1 0x1F DUP4 ADD SLT PUSH3 0x386 JUMPI PUSH1 0x0 DUP1 REVERT JUMPDEST DUP2 MLOAD DUP2 DUP2 GT ISZERO PUSH3 0x39B JUMPI PUSH3 0x39B PUSH3 0x1D4 JUMP JUMPDEST PUSH1 0x40 MLOAD PUSH1 0x1F DUP3 ADD PUSH1 0x1F NOT SWAP1 DUP2 AND PUSH1 0x3F ADD AND DUP2 ADD SWAP1 DUP4 DUP3 GT DUP2 DUP4 LT OR ISZERO PUSH3 0x3C6 JUMPI PUSH3 0x3C6 PUSH3 0x1D4 JUMP JUMPDEST DUP2 PUSH1 0x40 MSTORE DUP3 DUP2 MSTORE DUP9 DUP7 DUP5 DUP8 ADD ADD GT ISZERO PUSH3 0x3DF JUMPI PUSH1 0x0 DUP1 REVERT JUMPDEST PUSH1 0x0 SWAP4 POP JUMPDEST DUP3 DUP5 LT ISZERO PUSH3 0x403 JUMPI DUP5 DUP5 ADD DUP7 ADD MLOAD DUP2 DUP6 ADD DUP8 ADD MSTORE SWAP3 DUP6 ADD SWAP3 PUSH3 0x3E4 JUMP JUMPDEST PUSH1 0x0 DUP7 DUP5 DUP4 ADD ADD MSTORE DUP1 SWAP7 POP POP POP POP POP POP POP SWAP3 SWAP2 POP POP JUMP JUMPDEST PUSH2 0x26A0 DUP1 PUSH3 0x42A PUSH1 0x0 CODECOPY PUSH1 0x0 RETURN INVALID PUSH1 0x80 PUSH1 0x40 MSTORE CALLVALUE DUP1 ISZERO PUSH2 0x10 JUMPI PUSH1 0x0 DUP1 REVERT JUMPDEST POP PUSH1 0x4 CALLDATASIZE LT PUSH2 0x1EF JUMPI PUSH1 0x0 CALLDATALOAD PUSH1 0xE0 SHR DUP1 PUSH4 0x80C8D690 GT PUSH2 0x10F JUMPI DUP1 PUSH4 0xD5391393 GT PUSH2 0xA2 JUMPI DUP1 PUSH4 0xE63AB1E9 GT PUSH2 0x71 JUMPI DUP1 PUSH4 0xE63AB1E9 EQ PUSH2 0x457 JUMPI DUP1 PUSH4 0xE985E9C5 EQ PUSH2 0x47E JUMPI DUP1 PUSH4 0xF242432A EQ PUSH2 0x491 JUMPI DUP1 PUSH4 0xF5298ACA EQ PUSH2 0x4A4 JUMPI PUSH1 0x0 DUP1 REVERT JUMPDEST DUP1 PUSH4 0xD5391393 EQ PUSH2 0x409 JUMPI DUP1 PUSH4 0xD547741F EQ PUSH2 0x41E JUMPI DUP1 PUSH4 0xD5C32CA4 EQ PUSH2 0x431 JUMPI DUP1 PUSH4 0xD81D0A15 EQ PUSH2 0x444 JUMPI PUSH1 0x0 DUP1 REVERT JUMPDEST DUP1 PUSH4 0x95D89B41 GT PUSH2 0xDE JUMPI DUP1 PUSH4 0x95D89B41 EQ PUSH2 0x3C6 JUMPI DUP1 PUSH4 0xA217FDDF EQ PUSH2 0x3CE JUMPI DUP1 PUSH4 0xA22CB465 EQ PUSH2 0x3D6 JUMPI DUP1 PUSH4 0xBD85B039 EQ PUSH2 0x3E9 JUMPI PUSH1 0x0 DUP1 REVERT JUMPDEST DUP1 PUSH4 0x80C8D690 EQ PUSH2 0x378 JUMPI DUP1 PUSH4 0x8456CB59 EQ PUSH2 0x38B JUMPI DUP1 PUSH4 0x869F7594 EQ PUSH2 0x393 JUMPI DUP1 PUSH4 0x91D14854 EQ PUSH2 0x3B3 JUMPI PUSH1 0x0 DUP1 REVERT JUMPDEST DUP1 PUSH4 0x2EB2C2D6 GT PUSH2 0x187 JUMPI DUP1 PUSH4 0x4E1273F4 GT PUSH2 0x156 JUMPI DUP1 PUSH4 0x4E1273F4 EQ PUSH2 0x318 JUMPI DUP1 PUSH4 0x4F558E79 EQ PUSH2 0x338 JUMPI DUP1 PUSH4 0x5C975ABB EQ PUSH2 0x35A JUMPI DUP1 PUSH4 0x5F78F436 EQ PUSH2 0x365 JUMPI PUSH1 0x0 DUP1 REVERT JUMPDEST DUP1 PUSH4 0x2EB2C2D6 EQ PUSH2 0x2D7 JUMPI DUP1 PUSH4 0x2F2FF15D EQ PUSH2 0x2EA JUMPI DUP1 PUSH4 0x36568ABE EQ PUSH2 0x2FD JUMPI DUP1 PUSH4 0x3F4BA83A EQ PUSH2 0x310 JUMPI PUSH1 0x0 DUP1 REVERT JUMPDEST DUP1 PUSH4 0x156E29F6 GT PUSH2 0x1C3 JUMPI DUP1 PUSH4 0x156E29F6 EQ PUSH2 0x265 JUMPI DUP1 PUSH4 0x18160DDD EQ PUSH2 0x27A JUMPI DUP1 PUSH4 0x248A9CA3 EQ PUSH2 0x282 JUMPI DUP1 PUSH4 0x2A55205A EQ PUSH2 0x2A5 JUMPI PUSH1 0x0 DUP1 REVERT JUMPDEST DUP1 PUSH3 0xFDD58E EQ PUSH2 0x1F4 JUMPI DUP1 PUSH4 0x1FFC9A7 EQ PUSH2 0x21A JUMPI DUP1 PUSH4 0x6FDDE03 EQ PUSH2 0x23D JUMPI DUP1 PUSH4 0xE89341C EQ PUSH2 0x252 JUMPI JUMPDEST PUSH1 0x0 DUP1 REVERT JUMPDEST PUSH2 0x207 PUSH2 0x202 CALLDATASIZE PUSH1 0x4 PUSH2 0x1D24 JUMP JUMPDEST PUSH2 0x4B7 JUMP JUMPDEST PUSH1 0x40 MLOAD SWAP1 DUP2 MSTORE PUSH1 0x20 ADD JUMPDEST PUSH1 0x40 MLOAD DUP1 SWAP2 SUB SWAP1 RETURN JUMPDEST PUSH2 0x22D PUSH2 0x228 CALLDATASIZE PUSH1 0x4 PUSH2 0x1D64 JUMP JUMPDEST PUSH2 0x4DF JUMP JUMPDEST PUSH1 0x40 MLOAD SWAP1 ISZERO ISZERO DUP2 MSTORE PUSH1 0x20 ADD PUSH2 0x211 JUMP JUMPDEST PUSH2 0x245 PUSH2 0x504 JUMP JUMPDEST PUSH1 0x40 MLOAD PUSH2 0x211 SWAP2 SWAP1 PUSH2 0x1DC7 JUMP JUMPDEST PUSH2 0x245 PUSH2 0x260 CALLDATASIZE PUSH1 0x4 PUSH2 0x1DDA JUMP JUMPDEST PUSH2 0x592 JUMP JUMPDEST PUSH2 0x278 PUSH2 0x273 CALLDATASIZE PUSH1 0x4 PUSH2 0x1DF3 JUMP JUMPDEST PUSH2 0x650 JUMP JUMPDEST STOP JUMPDEST PUSH1 0x4 SLOAD PUSH2 0x207 JUMP JUMPDEST PUSH2 0x207 PUSH2 0x290 CALLDATASIZE PUSH1 0x4 PUSH2 0x1DDA JUMP JUMPDEST PUSH1 0x0 SWAP1 DUP2 MSTORE PUSH1 0x5 PUSH1 0x20 MSTORE PUSH1 0x40 SWAP1 KECCAK256 PUSH1 0x1 ADD SLOAD SWAP1 JUMP JUMPDEST PUSH2 0x2B8 PUSH2 0x2B3 CALLDATASIZE PUSH1 0x4 PUSH2 0x1E26 JUMP JUMPDEST PUSH2 0x7FD JUMP JUMPDEST PUSH1 0x40 DUP1 MLOAD PUSH1 0x1 PUSH1 0x1 PUSH1 0xA0 SHL SUB SWAP1 SWAP4 AND DUP4 MSTORE PUSH1 0x20 DUP4 ADD SWAP2 SWAP1 SWAP2 MSTORE ADD PUSH2 0x211 JUMP JUMPDEST PUSH2 0x278 PUSH2 0x2E5 CALLDATASIZE PUSH1 0x4 PUSH2 0x1F96 JUMP JUMPDEST PUSH2 0x887 JUMP JUMPDEST PUSH2 0x278 PUSH2 0x2F8 CALLDATASIZE PUSH1 0x4 PUSH2 0x2040 JUMP JUMPDEST PUSH2 0x8EE JUMP JUMPDEST PUSH2 0x278 PUSH2 0x30B CALLDATASIZE PUSH1 0x4 PUSH2 0x2040 JUMP JUMPDEST PUSH2 0x913 JUMP JUMPDEST PUSH2 0x278 PUSH2 0x94B JUMP JUMPDEST PUSH2 0x32B PUSH2 0x326 CALLDATASIZE PUSH1 0x4 PUSH2 0x206C JUMP JUMPDEST PUSH2 0x980 JUMP JUMPDEST PUSH1 0x40 MLOAD PUSH2 0x211 SWAP2 SWAP1 PUSH2 0x2167 JUMP JUMPDEST PUSH2 0x22D PUSH2 0x346 CALLDATASIZE PUSH1 0x4 PUSH2 0x1DDA JUMP JUMPDEST PUSH1 0x0 SWAP1 DUP2 MSTORE PUSH1 0x3 PUSH1 0x20 MSTORE PUSH1 0x40 SWAP1 KECCAK256 SLOAD ISZERO ISZERO SWAP1 JUMP JUMPDEST PUSH1 0x6 SLOAD PUSH1 0xFF AND PUSH2 0x22D JUMP JUMPDEST PUSH2 0x278 PUSH2 0x373 CALLDATASIZE PUSH1 0x4 PUSH2 0x217A JUMP JUMPDEST PUSH2 0xA55 JUMP JUMPDEST PUSH2 0x278 PUSH2 0x386 CALLDATASIZE PUSH1 0x4 PUSH2 0x21DE JUMP JUMPDEST PUSH2 0xB80 JUMP JUMPDEST PUSH2 0x278 PUSH2 0xCB3 JUMP JUMPDEST PUSH2 0x207 PUSH2 0x3A1 CALLDATASIZE PUSH1 0x4 PUSH2 0x1DDA JUMP JUMPDEST PUSH1 0x0 SWAP1 DUP2 MSTORE PUSH1 0xB PUSH1 0x20 MSTORE PUSH1 0x40 SWAP1 KECCAK256 SLOAD SWAP1 JUMP JUMPDEST PUSH2 0x22D PUSH2 0x3C1 CALLDATASIZE PUSH1 0x4 PUSH2 0x2040 JUMP JUMPDEST PUSH2 0xCE5 JUMP JUMPDEST PUSH2 0x245 PUSH2 0xD10 JUMP JUMPDEST PUSH2 0x207 PUSH1 0x0 DUP2 JUMP JUMPDEST PUSH2 0x278 PUSH2 0x3E4 CALLDATASIZE PUSH1 0x4 PUSH2 0x222A JUMP JUMPDEST PUSH2 0xD1D JUMP JUMPDEST PUSH2 0x207 PUSH2 0x3F7 CALLDATASIZE PUSH1 0x4 PUSH2 0x1DDA JUMP JUMPDEST PUSH1 0x0 SWAP1 DUP2 MSTORE PUSH1 0x3 PUSH1 0x20 MSTORE PUSH1 0x40 SWAP1 KECCAK256 SLOAD SWAP1 JUMP JUMPDEST PUSH2 0x207 PUSH1 0x0 DUP1 MLOAD PUSH1 0x20 PUSH2 0x264B DUP4 CODECOPY DUP2 MLOAD SWAP2 MSTORE DUP2 JUMP JUMPDEST PUSH2 0x278 PUSH2 0x42C CALLDATASIZE PUSH1 0x4 PUSH2 0x2040 JUMP JUMPDEST PUSH2 0xD2C JUMP JUMPDEST PUSH2 0x207 PUSH2 0x43F CALLDATASIZE PUSH1 0x4 PUSH2 0x1DDA JUMP JUMPDEST PUSH2 0xD51 JUMP JUMPDEST PUSH2 0x278 PUSH2 0x452 CALLDATASIZE PUSH1 0x4 PUSH2 0x2266 JUMP JUMPDEST PUSH2 0xD8B JUMP JUMPDEST PUSH2 0x207 PUSH32 0x65D7A28E3265B37A6474929F336521B332C1681B933F6CB9F3376673440D862A DUP2 JUMP JUMPDEST PUSH2 0x22D PUSH2 0x48C CALLDATASIZE PUSH1 0x4 PUSH2 0x22D0 JUMP JUMPDEST PUSH2 0x1062 JUMP JUMPDEST PUSH2 0x278 PUSH2 0x49F CALLDATASIZE PUSH1 0x4 PUSH2 0x22FA JUMP JUMPDEST PUSH2 0x1090 JUMP JUMPDEST PUSH2 0x278 PUSH2 0x4B2 CALLDATASIZE PUSH1 0x4 PUSH2 0x1DF3 JUMP JUMPDEST PUSH2 0x10EF JUMP JUMPDEST PUSH1 0x0 DUP2 DUP2 MSTORE PUSH1 0x20 DUP2 DUP2 MSTORE PUSH1 0x40 DUP1 DUP4 KECCAK256 PUSH1 0x1 PUSH1 0x1 PUSH1 0xA0 SHL SUB DUP7 AND DUP5 MSTORE SWAP1 SWAP2 MSTORE SWAP1 KECCAK256 SLOAD JUMPDEST SWAP3 SWAP2 POP POP JUMP JUMPDEST PUSH1 0x0 PUSH1 0x1 PUSH1 0x1 PUSH1 0xE0 SHL SUB NOT DUP3 AND PUSH4 0x152A902D PUSH1 0xE1 SHL EQ DUP1 PUSH2 0x4D9 JUMPI POP PUSH2 0x4D9 DUP3 PUSH2 0x11AB JUMP JUMPDEST PUSH1 0x8 DUP1 SLOAD PUSH2 0x511 SWAP1 PUSH2 0x235F JUMP JUMPDEST DUP1 PUSH1 0x1F ADD PUSH1 0x20 DUP1 SWAP2 DIV MUL PUSH1 0x20 ADD PUSH1 0x40 MLOAD SWAP1 DUP2 ADD PUSH1 0x40 MSTORE DUP1 SWAP3 SWAP2 SWAP1 DUP2 DUP2 MSTORE PUSH1 0x20 ADD DUP3 DUP1 SLOAD PUSH2 0x53D SWAP1 PUSH2 0x235F JUMP JUMPDEST DUP1 ISZERO PUSH2 0x58A JUMPI DUP1 PUSH1 0x1F LT PUSH2 0x55F JUMPI PUSH2 0x100 DUP1 DUP4 SLOAD DIV MUL DUP4 MSTORE SWAP2 PUSH1 0x20 ADD SWAP2 PUSH2 0x58A JUMP JUMPDEST DUP3 ADD SWAP2 SWAP1 PUSH1 0x0 MSTORE PUSH1 0x20 PUSH1 0x0 KECCAK256 SWAP1 JUMPDEST DUP2 SLOAD DUP2 MSTORE SWAP1 PUSH1 0x1 ADD SWAP1 PUSH1 0x20 ADD DUP1 DUP4 GT PUSH2 0x56D JUMPI DUP3 SWAP1 SUB PUSH1 0x1F AND DUP3 ADD SWAP2 JUMPDEST POP POP POP POP POP DUP2 JUMP JUMPDEST PUSH1 0x0 DUP2 DUP2 MSTORE PUSH1 0xA PUSH1 0x20 MSTORE PUSH1 0x40 DUP2 KECCAK256 DUP1 SLOAD PUSH1 0x60 SWAP3 SWAP2 SWAP1 PUSH2 0x5B0 SWAP1 PUSH2 0x235F JUMP JUMPDEST DUP1 PUSH1 0x1F ADD PUSH1 0x20 DUP1 SWAP2 DIV MUL PUSH1 0x20 ADD PUSH1 0x40 MLOAD SWAP1 DUP2 ADD PUSH1 0x40 MSTORE DUP1 SWAP3 SWAP2 SWAP1 DUP2 DUP2 MSTORE PUSH1 0x20 ADD DUP3 DUP1 SLOAD PUSH2 0x5DC SWAP1 PUSH2 0x235F JUMP JUMPDEST DUP1 ISZERO PUSH2 0x629 JUMPI DUP1 PUSH1 0x1F LT PUSH2 0x5FE JUMPI PUSH2 0x100 DUP1 DUP4 SLOAD DIV MUL DUP4 MSTORE SWAP2 PUSH1 0x20 ADD SWAP2 PUSH2 0x629 JUMP JUMPDEST DUP3 ADD SWAP2 SWAP1 PUSH1 0x0 MSTORE PUSH1 0x20 PUSH1 0x0 KECCAK256 SWAP1 JUMPDEST DUP2 SLOAD DUP2 MSTORE SWAP1 PUSH1 0x1 ADD SWAP1 PUSH1 0x20 ADD DUP1 DUP4 GT PUSH2 0x60C JUMPI DUP3 SWAP1 SUB PUSH1 0x1F AND DUP3 ADD SWAP2 JUMPDEST POP POP POP POP POP SWAP1 POP PUSH1 0x0 DUP2 MLOAD GT PUSH2 0x647 JUMPI PUSH2 0x642 DUP4 PUSH2 0x11D0 JUMP JUMPDEST PUSH2 0x649 JUMP JUMPDEST DUP1 JUMPDEST SWAP4 SWAP3 POP POP POP JUMP JUMPDEST PUSH1 0x0 DUP1 MLOAD PUSH1 0x20 PUSH2 0x264B DUP4 CODECOPY DUP2 MLOAD SWAP2 MSTORE PUSH2 0x668 DUP2 PUSH2 0x1264 JUMP JUMPDEST PUSH2 0x670 PUSH2 0x126E JUMP JUMPDEST PUSH2 0x678 PUSH2 0x1294 JUMP JUMPDEST PUSH1 0x1 PUSH1 0x1 PUSH1 0xA0 SHL SUB DUP5 AND PUSH2 0x6D3 JUMPI PUSH1 0x40 MLOAD PUSH3 0x461BCD PUSH1 0xE5 SHL DUP2 MSTORE PUSH1 0x20 PUSH1 0x4 DUP3 ADD MSTORE PUSH1 0x1B PUSH1 0x24 DUP3 ADD MSTORE PUSH32 0x43616E6E6F74206D696E7420746F207A65726F20616464726573730000000000 PUSH1 0x44 DUP3 ADD MSTORE PUSH1 0x64 ADD JUMPDEST PUSH1 0x40 MLOAD DUP1 SWAP2 SUB SWAP1 REVERT JUMPDEST PUSH1 0x0 DUP4 DUP2 MSTORE PUSH1 0xB PUSH1 0x20 MSTORE PUSH1 0x40 SWAP1 KECCAK256 SLOAD PUSH2 0x725 JUMPI PUSH1 0x40 MLOAD PUSH3 0x461BCD PUSH1 0xE5 SHL DUP2 MSTORE PUSH1 0x20 PUSH1 0x4 DUP3 ADD MSTORE PUSH1 0x14 PUSH1 0x24 DUP3 ADD MSTORE PUSH20 0x151BDAD95B88191BD95CC81B9BDD08195E1A5CDD PUSH1 0x62 SHL PUSH1 0x44 DUP3 ADD MSTORE PUSH1 0x64 ADD PUSH2 0x6CA JUMP JUMPDEST PUSH1 0x0 DUP4 DUP2 MSTORE PUSH1 0xB PUSH1 0x20 SWAP1 DUP2 MSTORE PUSH1 0x40 DUP1 DUP4 KECCAK256 SLOAD PUSH1 0x3 SWAP1 SWAP3 MSTORE SWAP1 SWAP2 KECCAK256 SLOAD PUSH2 0x74B SWAP1 DUP5 SWAP1 PUSH2 0x23AF JUMP JUMPDEST GT ISZERO PUSH2 0x78E JUMPI PUSH1 0x40 MLOAD PUSH3 0x461BCD PUSH1 0xE5 SHL DUP2 MSTORE PUSH1 0x20 PUSH1 0x4 DUP3 ADD MSTORE PUSH1 0x12 PUSH1 0x24 DUP3 ADD MSTORE PUSH18 0x45786365656473206D617820737570706C79 PUSH1 0x70 SHL PUSH1 0x44 DUP3 ADD MSTORE PUSH1 0x64 ADD PUSH2 0x6CA JUMP JUMPDEST PUSH2 0x7A9 DUP5 DUP5 DUP5 PUSH1 0x40 MLOAD DUP1 PUSH1 0x20 ADD PUSH1 0x40 MSTORE DUP1 PUSH1 0x0 DUP2 MSTORE POP PUSH2 0x12BE JUMP JUMPDEST DUP3 DUP5 PUSH1 0x1 PUSH1 0x1 PUSH1 0xA0 SHL SUB AND PUSH32 0xCBEA9C23945E351434F7AE5B1A435091CC278DD9DD0EBA4C04203674014CA7D7 DUP5 PUSH1 0x40 MLOAD PUSH2 0x7E5 SWAP2 DUP2 MSTORE PUSH1 0x20 ADD SWAP1 JUMP JUMPDEST PUSH1 0x40 MLOAD DUP1 SWAP2 SUB SWAP1 LOG3 PUSH2 0x7F7 PUSH1 0x1 PUSH1 0x7 SSTORE JUMP JUMPDEST POP POP POP POP JUMP JUMPDEST PUSH1 0x0 DUP3 DUP2 MSTORE PUSH1 0xC PUSH1 0x20 SWAP1 DUP2 MSTORE PUSH1 0x40 DUP1 DUP4 KECCAK256 DUP2 MLOAD DUP1 DUP4 ADD SWAP1 SWAP3 MSTORE SLOAD PUSH1 0x1 PUSH1 0x1 PUSH1 0xA0 SHL SUB DUP2 AND DUP1 DUP4 MSTORE PUSH1 0x1 PUSH1 0xA0 SHL SWAP1 SWAP2 DIV PUSH1 0x1 PUSH1 0x1 PUSH1 0x60 SHL SUB AND SWAP3 DUP3 ADD SWAP3 SWAP1 SWAP3 MSTORE DUP3 SWAP2 PUSH2 0x84F JUMPI PUSH1 0x0 DUP1 SWAP3 POP SWAP3 POP POP PUSH2 0x880 JUMP JUMPDEST PUSH1 0x0 PUSH2 0x2710 DUP3 PUSH1 0x20 ADD MLOAD PUSH1 0x1 PUSH1 0x1 PUSH1 0x60 SHL SUB AND DUP7 PUSH2 0x86D SWAP2 SWAP1 PUSH2 0x23C2 JUMP JUMPDEST PUSH2 0x877 SWAP2 SWAP1 PUSH2 0x23D9 JUMP JUMPDEST SWAP2 MLOAD SWAP4 POP SWAP1 SWAP2 POP POP JUMPDEST SWAP3 POP SWAP3 SWAP1 POP JUMP JUMPDEST CALLER PUSH1 0x1 PUSH1 0x1 PUSH1 0xA0 SHL SUB DUP7 AND DUP2 EQ DUP1 ISZERO SWAP1 PUSH2 0x8A8 JUMPI POP PUSH2 0x8A6 DUP7 DUP3 PUSH2 0x1062 JUMP JUMPDEST ISZERO JUMPDEST ISZERO PUSH2 0x8D9 JUMPI PUSH1 0x40 MLOAD PUSH4 0x711BEC91 PUSH1 0xE1 SHL DUP2 MSTORE PUSH1 0x1 PUSH1 0x1 PUSH1 0xA0 SHL SUB DUP1 DUP4 AND PUSH1 0x4 DUP4 ADD MSTORE DUP8 AND PUSH1 0x24 DUP3 ADD MSTORE PUSH1 0x44 ADD PUSH2 0x6CA JUMP JUMPDEST PUSH2 0x8E6 DUP7 DUP7 DUP7 DUP7 DUP7 PUSH2 0x131B JUMP JUMPDEST POP POP POP POP POP POP JUMP JUMPDEST PUSH1 0x0 DUP3 DUP2 MSTORE PUSH1 0x5 PUSH1 0x20 MSTORE PUSH1 0x40 SWAP1 KECCAK256 PUSH1 0x1 ADD SLOAD PUSH2 0x909 DUP2 PUSH2 0x1264 JUMP JUMPDEST PUSH2 0x7F7 DUP4 DUP4 PUSH2 0x1382 JUMP JUMPDEST PUSH1 0x1 PUSH1 0x1 PUSH1 0xA0 SHL SUB DUP2 AND CALLER EQ PUSH2 0x93C JUMPI PUSH1 0x40 MLOAD PUSH4 0x334BD919 PUSH1 0xE1 SHL DUP2 MSTORE PUSH1 0x4 ADD PUSH1 0x40 MLOAD DUP1 SWAP2 SUB SWAP1 REVERT JUMPDEST PUSH2 0x946 DUP3 DUP3 PUSH2 0x1416 JUMP JUMPDEST POP POP POP JUMP JUMPDEST PUSH32 0x65D7A28E3265B37A6474929F336521B332C1681B933F6CB9F3376673440D862A PUSH2 0x975 DUP2 PUSH2 0x1264 JUMP JUMPDEST PUSH2 0x97D PUSH2 0x1483 JUMP JUMPDEST POP JUMP JUMPDEST PUSH1 0x60 DUP2 MLOAD DUP4 MLOAD EQ PUSH2 0x9B1 JUMPI DUP2 MLOAD DUP4 MLOAD PUSH1 0x40 MLOAD PUSH4 0x5B059991 PUSH1 0xE0 SHL DUP2 MSTORE PUSH1 0x4 DUP2 ADD SWAP3 SWAP1 SWAP3 MSTORE PUSH1 0x24 DUP3 ADD MSTORE PUSH1 0x44 ADD PUSH2 0x6CA JUMP JUMPDEST PUSH1 0x0 DUP4 MLOAD PUSH8 0xFFFFFFFFFFFFFFFF DUP2 GT ISZERO PUSH2 0x9CD JUMPI PUSH2 0x9CD PUSH2 0x1E48 JUMP JUMPDEST PUSH1 0x40 MLOAD SWAP1 DUP1 DUP3 MSTORE DUP1 PUSH1 0x20 MUL PUSH1 0x20 ADD DUP3 ADD PUSH1 0x40 MSTORE DUP1 ISZERO PUSH2 0x9F6 JUMPI DUP2 PUSH1 0x20 ADD PUSH1 0x20 DUP3 MUL DUP1 CALLDATASIZE DUP4 CALLDATACOPY ADD SWAP1 POP JUMPDEST POP SWAP1 POP PUSH1 0x0 JUMPDEST DUP5 MLOAD DUP2 LT ISZERO PUSH2 0xA4D JUMPI PUSH1 0x20 DUP1 DUP3 MUL DUP7 ADD ADD MLOAD PUSH2 0xA20 SWAP1 PUSH1 0x20 DUP1 DUP5 MUL DUP8 ADD ADD MLOAD PUSH2 0x4B7 JUMP JUMPDEST DUP3 DUP3 DUP2 MLOAD DUP2 LT PUSH2 0xA32 JUMPI PUSH2 0xA32 PUSH2 0x23FB JUMP JUMPDEST PUSH1 0x20 SWAP1 DUP2 MUL SWAP2 SWAP1 SWAP2 ADD ADD MSTORE PUSH2 0xA46 DUP2 PUSH2 0x2411 JUMP JUMPDEST SWAP1 POP PUSH2 0x9FC JUMP JUMPDEST POP SWAP4 SWAP3 POP POP POP JUMP JUMPDEST PUSH1 0x0 DUP1 MLOAD PUSH1 0x20 PUSH2 0x264B DUP4 CODECOPY DUP2 MLOAD SWAP2 MSTORE PUSH2 0xA6D DUP2 PUSH2 0x1264 JUMP JUMPDEST PUSH1 0x0 DUP5 DUP2 MSTORE PUSH1 0xB PUSH1 0x20 MSTORE PUSH1 0x40 SWAP1 KECCAK256 SLOAD ISZERO PUSH2 0xAC0 JUMPI PUSH1 0x40 MLOAD PUSH3 0x461BCD PUSH1 0xE5 SHL DUP2 MSTORE PUSH1 0x20 PUSH1 0x4 DUP3 ADD MSTORE PUSH1 0x14 PUSH1 0x24 DUP3 ADD MSTORE PUSH20 0x546F6B656E20616C726561647920657869737473 PUSH1 0x60 SHL PUSH1 0x44 DUP3 ADD MSTORE PUSH1 0x64 ADD PUSH2 0x6CA JUMP JUMPDEST PUSH1 0x0 DUP4 GT PUSH2 0xB1A JUMPI PUSH1 0x40 MLOAD PUSH3 0x461BCD PUSH1 0xE5 SHL DUP2 MSTORE PUSH1 0x20 PUSH1 0x4 DUP3 ADD MSTORE PUSH1 0x21 PUSH1 0x24 DUP3 ADD MSTORE PUSH32 0x4D617820737570706C79206D7573742062652067726561746572207468616E20 PUSH1 0x44 DUP3 ADD MSTORE PUSH1 0x3 PUSH1 0xFC SHL PUSH1 0x64 DUP3 ADD MSTORE PUSH1 0x84 ADD PUSH2 0x6CA JUMP JUMPDEST PUSH1 0x0 DUP5 DUP2 MSTORE PUSH1 0xB PUSH1 0x20 SWAP1 DUP2 MSTORE PUSH1 0x40 DUP1 DUP4 KECCAK256 DUP7 SWAP1 SSTORE PUSH1 0xA SWAP1 SWAP2 MSTORE SWAP1 KECCAK256 PUSH2 0xB3F DUP4 DUP3 PUSH2 0x2470 JUMP JUMPDEST POP DUP4 PUSH32 0x32EEA7039F743570A6B30307011091D44EEEE7F935E6F21AC6FD582B8C3D620B DUP5 DUP5 PUSH1 0x40 MLOAD PUSH2 0xB72 SWAP3 SWAP2 SWAP1 PUSH2 0x2530 JUMP JUMPDEST PUSH1 0x40 MLOAD DUP1 SWAP2 SUB SWAP1 LOG2 POP POP POP POP JUMP JUMPDEST PUSH1 0x0 PUSH2 0xB8B DUP2 PUSH2 0x1264 JUMP JUMPDEST PUSH1 0x1 PUSH1 0x1 PUSH1 0xA0 SHL SUB DUP4 AND PUSH2 0xBE1 JUMPI PUSH1 0x40 MLOAD PUSH3 0x461BCD PUSH1 0xE5 SHL DUP2 MSTORE PUSH1 0x20 PUSH1 0x4 DUP3 ADD MSTORE PUSH1 0x18 PUSH1 0x24 DUP3 ADD MSTORE PUSH32 0x496E76616C696420726563656976657220616464726573730000000000000000 PUSH1 0x44 DUP3 ADD MSTORE PUSH1 0x64 ADD PUSH2 0x6CA JUMP JUMPDEST PUSH2 0x2710 DUP3 PUSH1 0x1 PUSH1 0x1 PUSH1 0x60 SHL SUB AND GT ISZERO PUSH2 0xC2F JUMPI PUSH1 0x40 MLOAD PUSH3 0x461BCD PUSH1 0xE5 SHL DUP2 MSTORE PUSH1 0x20 PUSH1 0x4 DUP3 ADD MSTORE PUSH1 0x10 PUSH1 0x24 DUP3 ADD MSTORE PUSH16 0xA4DEF2C2D8E8F240E8DEDE40D0D2CED PUSH1 0x83 SHL PUSH1 0x44 DUP3 ADD MSTORE PUSH1 0x64 ADD PUSH2 0x6CA JUMP JUMPDEST PUSH1 0x40 DUP1 MLOAD DUP1 DUP3 ADD DUP3 MSTORE PUSH1 0x1 PUSH1 0x1 PUSH1 0xA0 SHL SUB DUP6 DUP2 AND DUP1 DUP4 MSTORE PUSH1 0x1 PUSH1 0x1 PUSH1 0x60 SHL SUB DUP7 DUP2 AND PUSH1 0x20 DUP1 DUP7 ADD DUP3 DUP2 MSTORE PUSH1 0x0 DUP13 DUP2 MSTORE PUSH1 0xC DUP4 MSTORE DUP9 SWAP1 KECCAK256 SWAP7 MLOAD SWAP1 MLOAD SWAP1 SWAP4 AND PUSH1 0x1 PUSH1 0xA0 SHL MUL SWAP3 SWAP1 SWAP5 AND SWAP2 SWAP1 SWAP2 OR SWAP1 SWAP4 SSTORE DUP4 MLOAD SWAP1 DUP2 MSTORE SWAP1 DUP2 ADD SWAP2 SWAP1 SWAP2 MSTORE DUP6 SWAP2 PUSH32 0x93C3D3C02F3E5B8FF28A98E2FF5DC3D9395F4F02AF3A830C3789C8AF25420253 SWAP2 ADD PUSH2 0xB72 JUMP JUMPDEST PUSH32 0x65D7A28E3265B37A6474929F336521B332C1681B933F6CB9F3376673440D862A PUSH2 0xCDD DUP2 PUSH2 0x1264 JUMP JUMPDEST PUSH2 0x97D PUSH2 0x14D5 JUMP JUMPDEST PUSH1 0x0 SWAP2 DUP3 MSTORE PUSH1 0x5 PUSH1 0x20 SWAP1 DUP2 MSTORE PUSH1 0x40 DUP1 DUP5 KECCAK256 PUSH1 0x1 PUSH1 0x1 PUSH1 0xA0 SHL SUB SWAP4 SWAP1 SWAP4 AND DUP5 MSTORE SWAP2 SWAP1 MSTORE SWAP1 KECCAK256 SLOAD PUSH1 0xFF AND SWAP1 JUMP JUMPDEST PUSH1 0x9 DUP1 SLOAD PUSH2 0x511 SWAP1 PUSH2 0x235F JUMP JUMPDEST PUSH2 0xD28 CALLER DUP4 DUP4 PUSH2 0x1512 JUMP JUMPDEST POP POP JUMP JUMPDEST PUSH1 0x0 DUP3 DUP2 MSTORE PUSH1 0x5 PUSH1 0x20 MSTORE PUSH1 0x40 SWAP1 KECCAK256 PUSH1 0x1 ADD SLOAD PUSH2 0xD47 DUP2 PUSH2 0x1264 JUMP JUMPDEST PUSH2 0x7F7 DUP4 DUP4 PUSH2 0x1416 JUMP JUMPDEST PUSH1 0x0 DUP2 DUP2 MSTORE PUSH1 0xB PUSH1 0x20 SWAP1 DUP2 MSTORE PUSH1 0x40 DUP1 DUP4 KECCAK256 SLOAD PUSH1 0x3 SWAP1 SWAP3 MSTORE DUP3 KECCAK256 SLOAD DUP1 DUP3 GT PUSH2 0xD79 JUMPI PUSH1 0x0 PUSH2 0xD83 JUMP JUMPDEST PUSH2 0xD83 DUP2 DUP4 PUSH2 0x2549 JUMP JUMPDEST SWAP5 SWAP4 POP POP POP POP JUMP JUMPDEST PUSH1 0x0 DUP1 MLOAD PUSH1 0x20 PUSH2 0x264B DUP4 CODECOPY DUP2 MLOAD SWAP2 MSTORE PUSH2 0xDA3 DUP2 PUSH2 0x1264 JUMP JUMPDEST PUSH2 0xDAB PUSH2 0x126E JUMP JUMPDEST PUSH2 0xDB3 PUSH2 0x1294 JUMP JUMPDEST PUSH1 0x1 PUSH1 0x1 PUSH1 0xA0 SHL SUB DUP5 AND PUSH2 0xE09 JUMPI PUSH1 0x40 MLOAD PUSH3 0x461BCD PUSH1 0xE5 SHL DUP2 MSTORE PUSH1 0x20 PUSH1 0x4 DUP3 ADD MSTORE PUSH1 0x1B PUSH1 0x24 DUP3 ADD MSTORE PUSH32 0x43616E6E6F74206D696E7420746F207A65726F20616464726573730000000000 PUSH1 0x44 DUP3 ADD MSTORE PUSH1 0x64 ADD PUSH2 0x6CA JUMP JUMPDEST DUP2 MLOAD DUP4 MLOAD EQ PUSH2 0xE53 JUMPI PUSH1 0x40 MLOAD PUSH3 0x461BCD PUSH1 0xE5 SHL DUP2 MSTORE PUSH1 0x20 PUSH1 0x4 DUP3 ADD MSTORE PUSH1 0x16 PUSH1 0x24 DUP3 ADD MSTORE PUSH22 0x82E4E4C2F2E640D8CADCCEE8D040DAD2E6DAC2E8C6D PUSH1 0x53 SHL PUSH1 0x44 DUP3 ADD MSTORE PUSH1 0x64 ADD PUSH2 0x6CA JUMP JUMPDEST PUSH1 0x0 JUMPDEST DUP4 MLOAD DUP2 LT ISZERO PUSH2 0xFA7 JUMPI PUSH1 0x0 PUSH1 0xB PUSH1 0x0 DUP7 DUP5 DUP2 MLOAD DUP2 LT PUSH2 0xE77 JUMPI PUSH2 0xE77 PUSH2 0x23FB JUMP JUMPDEST PUSH1 0x20 MUL PUSH1 0x20 ADD ADD MLOAD DUP2 MSTORE PUSH1 0x20 ADD SWAP1 DUP2 MSTORE PUSH1 0x20 ADD PUSH1 0x0 KECCAK256 SLOAD GT PUSH2 0xED2 JUMPI PUSH1 0x40 MLOAD PUSH3 0x461BCD PUSH1 0xE5 SHL DUP2 MSTORE PUSH1 0x20 PUSH1 0x4 DUP3 ADD MSTORE PUSH1 0x14 PUSH1 0x24 DUP3 ADD MSTORE PUSH20 0x151BDAD95B88191BD95CC81B9BDD08195E1A5CDD PUSH1 0x62 SHL PUSH1 0x44 DUP3 ADD MSTORE PUSH1 0x64 ADD PUSH2 0x6CA JUMP JUMPDEST PUSH1 0xB PUSH1 0x0 DUP6 DUP4 DUP2 MLOAD DUP2 LT PUSH2 0xEE8 JUMPI PUSH2 0xEE8 PUSH2 0x23FB JUMP JUMPDEST PUSH1 0x20 MUL PUSH1 0x20 ADD ADD MLOAD DUP2 MSTORE PUSH1 0x20 ADD SWAP1 DUP2 MSTORE PUSH1 0x20 ADD PUSH1 0x0 KECCAK256 SLOAD DUP4 DUP3 DUP2 MLOAD DUP2 LT PUSH2 0xF11 JUMPI PUSH2 0xF11 PUSH2 0x23FB JUMP JUMPDEST PUSH1 0x20 MUL PUSH1 0x20 ADD ADD MLOAD PUSH2 0xF48 DUP7 DUP5 DUP2 MLOAD DUP2 LT PUSH2 0xF2E JUMPI PUSH2 0xF2E PUSH2 0x23FB JUMP JUMPDEST PUSH1 0x20 MUL PUSH1 0x20 ADD ADD MLOAD PUSH1 0x0 SWAP1 DUP2 MSTORE PUSH1 0x3 PUSH1 0x20 MSTORE PUSH1 0x40 SWAP1 KECCAK256 SLOAD SWAP1 JUMP JUMPDEST PUSH2 0xF52 SWAP2 SWAP1 PUSH2 0x23AF JUMP JUMPDEST GT ISZERO PUSH2 0xF95 JUMPI PUSH1 0x40 MLOAD PUSH3 0x461BCD PUSH1 0xE5 SHL DUP2 MSTORE PUSH1 0x20 PUSH1 0x4 DUP3 ADD MSTORE PUSH1 0x12 PUSH1 0x24 DUP3 ADD MSTORE PUSH18 0x45786365656473206D617820737570706C79 PUSH1 0x70 SHL PUSH1 0x44 DUP3 ADD MSTORE PUSH1 0x64 ADD PUSH2 0x6CA JUMP JUMPDEST DUP1 PUSH2 0xF9F DUP2 PUSH2 0x2411 JUMP JUMPDEST SWAP2 POP POP PUSH2 0xE56 JUMP JUMPDEST POP PUSH2 0xFC3 DUP5 DUP5 DUP5 PUSH1 0x40 MLOAD DUP1 PUSH1 0x20 ADD PUSH1 0x40 MSTORE DUP1 PUSH1 0x0 DUP2 MSTORE POP PUSH2 0x15A0 JUMP JUMPDEST PUSH1 0x0 JUMPDEST DUP4 MLOAD DUP2 LT ISZERO PUSH2 0x1057 JUMPI DUP4 DUP2 DUP2 MLOAD DUP2 LT PUSH2 0xFE1 JUMPI PUSH2 0xFE1 PUSH2 0x23FB JUMP JUMPDEST PUSH1 0x20 MUL PUSH1 0x20 ADD ADD MLOAD DUP6 PUSH1 0x1 PUSH1 0x1 PUSH1 0xA0 SHL SUB AND PUSH32 0xCBEA9C23945E351434F7AE5B1A435091CC278DD9DD0EBA4C04203674014CA7D7 DUP6 DUP5 DUP2 MLOAD DUP2 LT PUSH2 0x1026 JUMPI PUSH2 0x1026 PUSH2 0x23FB JUMP JUMPDEST PUSH1 0x20 MUL PUSH1 0x20 ADD ADD MLOAD PUSH1 0x40 MLOAD PUSH2 0x103D SWAP2 DUP2 MSTORE PUSH1 0x20 ADD SWAP1 JUMP JUMPDEST PUSH1 0x40 MLOAD DUP1 SWAP2 SUB SWAP1 LOG3 DUP1 PUSH2 0x104F DUP2 PUSH2 0x2411 JUMP JUMPDEST SWAP2 POP POP PUSH2 0xFC6 JUMP JUMPDEST POP PUSH2 0x7F7 PUSH1 0x1 PUSH1 0x7 SSTORE JUMP JUMPDEST PUSH1 0x1 PUSH1 0x1 PUSH1 0xA0 SHL SUB SWAP2 DUP3 AND PUSH1 0x0 SWAP1 DUP2 MSTORE PUSH1 0x1 PUSH1 0x20 SWAP1 DUP2 MSTORE PUSH1 0x40 DUP1 DUP4 KECCAK256 SWAP4 SWAP1 SWAP5 AND DUP3 MSTORE SWAP2 SWAP1 SWAP2 MSTORE KECCAK256 SLOAD PUSH1 0xFF AND SWAP1 JUMP JUMPDEST CALLER PUSH1 0x1 PUSH1 0x1 PUSH1 0xA0 SHL SUB DUP7 AND DUP2 EQ DUP1 ISZERO SWAP1 PUSH2 0x10B1 JUMPI POP PUSH2 0x10AF DUP7 DUP3 PUSH2 0x1062 JUMP JUMPDEST ISZERO JUMPDEST ISZERO PUSH2 0x10E2 JUMPI PUSH1 0x40 MLOAD PUSH4 0x711BEC91 PUSH1 0xE1 SHL DUP2 MSTORE PUSH1 0x1 PUSH1 0x1 PUSH1 0xA0 SHL SUB DUP1 DUP4 AND PUSH1 0x4 DUP4 ADD MSTORE DUP8 AND PUSH1 0x24 DUP3 ADD MSTORE PUSH1 0x44 ADD PUSH2 0x6CA JUMP JUMPDEST PUSH2 0x8E6 DUP7 DUP7 DUP7 DUP7 DUP7 PUSH2 0x15D8 JUMP JUMPDEST PUSH1 0x1 PUSH1 0x1 PUSH1 0xA0 SHL SUB DUP4 AND CALLER EQ DUP1 PUSH2 0x110B JUMPI POP PUSH2 0x110B DUP4 CALLER PUSH2 0x1062 JUMP JUMPDEST PUSH2 0x1157 JUMPI PUSH1 0x40 MLOAD PUSH3 0x461BCD PUSH1 0xE5 SHL DUP2 MSTORE PUSH1 0x20 PUSH1 0x4 DUP3 ADD DUP2 SWAP1 MSTORE PUSH1 0x24 DUP3 ADD MSTORE PUSH32 0x43616C6C6572206973206E6F74206F776E6572206E6F7220617070726F766564 PUSH1 0x44 DUP3 ADD MSTORE PUSH1 0x64 ADD PUSH2 0x6CA JUMP JUMPDEST PUSH2 0x1162 DUP4 DUP4 DUP4 PUSH2 0x1666 JUMP JUMPDEST DUP2 DUP4 PUSH1 0x1 PUSH1 0x1 PUSH1 0xA0 SHL SUB AND PUSH32 0x6065A8850C5813614B41368663E05EB6C2244539C572B55DA7B9C0ED65BF10E8 DUP4 PUSH1 0x40 MLOAD PUSH2 0x119E SWAP2 DUP2 MSTORE PUSH1 0x20 ADD SWAP1 JUMP JUMPDEST PUSH1 0x40 MLOAD DUP1 SWAP2 SUB SWAP1 LOG3 POP POP POP JUMP JUMPDEST PUSH1 0x0 PUSH1 0x1 PUSH1 0x1 PUSH1 0xE0 SHL SUB NOT DUP3 AND PUSH4 0x7965DB0B PUSH1 0xE0 SHL EQ DUP1 PUSH2 0x4D9 JUMPI POP PUSH2 0x4D9 DUP3 PUSH2 0x16CE JUMP JUMPDEST PUSH1 0x60 PUSH1 0x2 DUP1 SLOAD PUSH2 0x11DF SWAP1 PUSH2 0x235F JUMP JUMPDEST DUP1 PUSH1 0x1F ADD PUSH1 0x20 DUP1 SWAP2 DIV MUL PUSH1 0x20 ADD PUSH1 0x40 MLOAD SWAP1 DUP2 ADD PUSH1 0x40 MSTORE DUP1 SWAP3 SWAP2 SWAP1 DUP2 DUP2 MSTORE PUSH1 0x20 ADD DUP3 DUP1 SLOAD PUSH2 0x120B SWAP1 PUSH2 0x235F JUMP JUMPDEST DUP1 ISZERO PUSH2 0x1258 JUMPI DUP1 PUSH1 0x1F LT PUSH2 0x122D JUMPI PUSH2 0x100 DUP1 DUP4 SLOAD DIV MUL DUP4 MSTORE SWAP2 PUSH1 0x20 ADD SWAP2 PUSH2 0x1258 JUMP JUMPDEST DUP3 ADD SWAP2 SWAP1 PUSH1 0x0 MSTORE PUSH1 0x20 PUSH1 0x0 KECCAK256 SWAP1 JUMPDEST DUP2 SLOAD DUP2 MSTORE SWAP1 PUSH1 0x1 ADD SWAP1 PUSH1 0x20 ADD DUP1 DUP4 GT PUSH2 0x123B JUMPI DUP3 SWAP1 SUB PUSH1 0x1F AND DUP3 ADD SWAP2 JUMPDEST POP POP POP POP POP SWAP1 POP SWAP2 SWAP1 POP JUMP JUMPDEST PUSH2 0x97D DUP2 CALLER PUSH2 0x171E JUMP JUMPDEST PUSH1 0x6 SLOAD PUSH1 0xFF AND ISZERO PUSH2 0x1292 JUMPI PUSH1 0x40 MLOAD PUSH4 0xD93C0665 PUSH1 0xE0 SHL DUP2 MSTORE PUSH1 0x4 ADD PUSH1 0x40 MLOAD DUP1 SWAP2 SUB SWAP1 REVERT JUMPDEST JUMP JUMPDEST PUSH1 0x2 PUSH1 0x7 SLOAD SUB PUSH2 0x12B7 JUMPI PUSH1 0x40 MLOAD PUSH4 0x3EE5AEB5 PUSH1 0xE0 SHL DUP2 MSTORE PUSH1 0x4 ADD PUSH1 0x40 MLOAD DUP1 SWAP2 SUB SWAP1 REVERT JUMPDEST PUSH1 0x2 PUSH1 0x7 SSTORE JUMP JUMPDEST PUSH1 0x1 PUSH1 0x1 PUSH1 0xA0 SHL SUB DUP5 AND PUSH2 0x12E8 JUMPI PUSH1 0x40 MLOAD PUSH4 0x2BFA23E7 PUSH1 0xE1 SHL DUP2 MSTORE PUSH1 0x0 PUSH1 0x4 DUP3 ADD MSTORE PUSH1 0x24 ADD PUSH2 0x6CA JUMP JUMPDEST PUSH1 0x40 DUP1 MLOAD PUSH1 0x1 DUP1 DUP3 MSTORE PUSH1 0x20 DUP3 ADD DUP7 SWAP1 MSTORE DUP2 DUP4 ADD SWAP1 DUP2 MSTORE PUSH1 0x60 DUP3 ADD DUP6 SWAP1 MSTORE PUSH1 0x80 DUP3 ADD SWAP1 SWAP3 MSTORE SWAP1 PUSH2 0x8E6 PUSH1 0x0 DUP8 DUP5 DUP5 DUP8 PUSH2 0x1757 JUMP JUMPDEST PUSH1 0x1 PUSH1 0x1 PUSH1 0xA0 SHL SUB DUP5 AND PUSH2 0x1345 JUMPI PUSH1 0x40 MLOAD PUSH4 0x2BFA23E7 PUSH1 0xE1 SHL DUP2 MSTORE PUSH1 0x0 PUSH1 0x4 DUP3 ADD MSTORE PUSH1 0x24 ADD PUSH2 0x6CA JUMP JUMPDEST PUSH1 0x1 PUSH1 0x1 PUSH1 0xA0 SHL SUB DUP6 AND PUSH2 0x136E JUMPI PUSH1 0x40 MLOAD PUSH3 0x6A0D45 PUSH1 0xE2 SHL DUP2 MSTORE PUSH1 0x0 PUSH1 0x4 DUP3 ADD MSTORE PUSH1 0x24 ADD PUSH2 0x6CA JUMP JUMPDEST PUSH2 0x137B DUP6 DUP6 DUP6 DUP6 DUP6 PUSH2 0x1757 JUMP JUMPDEST POP POP POP POP POP JUMP JUMPDEST PUSH1 0x0 PUSH2 0x138E DUP4 DUP4 PUSH2 0xCE5 JUMP JUMPDEST PUSH2 0x140E JUMPI PUSH1 0x0 DUP4 DUP2 MSTORE PUSH1 0x5 PUSH1 0x20 SWAP1 DUP2 MSTORE PUSH1 0x40 DUP1 DUP4 KECCAK256 PUSH1 0x1 PUSH1 0x1 PUSH1 0xA0 SHL SUB DUP7 AND DUP5 MSTORE SWAP1 SWAP2 MSTORE SWAP1 KECCAK256 DUP1 SLOAD PUSH1 0xFF NOT AND PUSH1 0x1 OR SWAP1 SSTORE PUSH2 0x13C6 CALLER SWAP1 JUMP JUMPDEST PUSH1 0x1 PUSH1 0x1 PUSH1 0xA0 SHL SUB AND DUP3 PUSH1 0x1 PUSH1 0x1 PUSH1 0xA0 SHL SUB AND DUP5 PUSH32 0x2F8788117E7EFF1D82E926EC794901D17C78024A50270940304540A733656F0D PUSH1 0x40 MLOAD PUSH1 0x40 MLOAD DUP1 SWAP2 SUB SWAP1 LOG4 POP PUSH1 0x1 PUSH2 0x4D9 JUMP JUMPDEST POP PUSH1 0x0 PUSH2 0x4D9 JUMP JUMPDEST PUSH1 0x0 PUSH2 0x1422 DUP4 DUP4 PUSH2 0xCE5 JUMP JUMPDEST ISZERO PUSH2 0x140E JUMPI PUSH1 0x0 DUP4 DUP2 MSTORE PUSH1 0x5 PUSH1 0x20 SWAP1 DUP2 MSTORE PUSH1 0x40 DUP1 DUP4 KECCAK256 PUSH1 0x1 PUSH1 0x1 PUSH1 0xA0 SHL SUB DUP7 AND DUP1 DUP6 MSTORE SWAP3 MSTORE DUP1 DUP4 KECCAK256 DUP1 SLOAD PUSH1 0xFF NOT AND SWAP1 SSTORE MLOAD CALLER SWAP3 DUP7 SWAP2 PUSH32 0xF6391F5C32D9C69D2A47EA670B442974B53935D1EDC7FD64EB21E047A839171B SWAP2 SWAP1 LOG4 POP PUSH1 0x1 PUSH2 0x4D9 JUMP JUMPDEST PUSH2 0x148B PUSH2 0x17AA JUMP JUMPDEST PUSH1 0x6 DUP1 SLOAD PUSH1 0xFF NOT AND SWAP1 SSTORE PUSH32 0x5DB9EE0A495BF2E6FF9C91A7834C1BA4FDD244A5E8AA4E537BD38AEAE4B073AA CALLER JUMPDEST PUSH1 0x40 MLOAD PUSH1 0x1 PUSH1 0x1 PUSH1 0xA0 SHL SUB SWAP1 SWAP2 AND DUP2 MSTORE PUSH1 0x20 ADD PUSH1 0x40 MLOAD DUP1 SWAP2 SUB SWAP1 LOG1 JUMP JUMPDEST PUSH2 0x14DD PUSH2 0x126E JUMP JUMPDEST PUSH1 0x6 DUP1 SLOAD PUSH1 0xFF NOT AND PUSH1 0x1 OR SWAP1 SSTORE PUSH32 0x62E78CEA01BEE320CD4E420270B5EA74000D11B0C9F74754EBDBFC544B05A258 PUSH2 0x14B8 CALLER SWAP1 JUMP JUMPDEST PUSH1 0x1 PUSH1 0x1 PUSH1 0xA0 SHL SUB DUP3 AND PUSH2 0x153B JUMPI PUSH1 0x40 MLOAD PUSH3 0xCED3E1 PUSH1 0xE8 SHL DUP2 MSTORE PUSH1 0x0 PUSH1 0x4 DUP3 ADD MSTORE PUSH1 0x24 ADD PUSH2 0x6CA JUMP JUMPDEST PUSH1 0x1 PUSH1 0x1 PUSH1 0xA0 SHL SUB DUP4 DUP2 AND PUSH1 0x0 DUP2 DUP2 MSTORE PUSH1 0x1 PUSH1 0x20 SWAP1 DUP2 MSTORE PUSH1 0x40 DUP1 DUP4 KECCAK256 SWAP5 DUP8 AND DUP1 DUP5 MSTORE SWAP5 DUP3 MSTORE SWAP2 DUP3 SWAP1 KECCAK256 DUP1 SLOAD PUSH1 0xFF NOT AND DUP7 ISZERO ISZERO SWAP1 DUP2 OR SWAP1 SWAP2 SSTORE SWAP2 MLOAD SWAP2 DUP3 MSTORE PUSH32 0x17307EAB39AB6107E8899845AD3D59BD9653F200F220920489CA2B5937696C31 SWAP2 ADD PUSH2 0x119E JUMP JUMPDEST PUSH1 0x1 PUSH1 0x1 PUSH1 0xA0 SHL SUB DUP5 AND PUSH2 0x15CA JUMPI PUSH1 0x40 MLOAD PUSH4 0x2BFA23E7 PUSH1 0xE1 SHL DUP2 MSTORE PUSH1 0x0 PUSH1 0x4 DUP3 ADD MSTORE PUSH1 0x24 ADD PUSH2 0x6CA JUMP JUMPDEST PUSH2 0x7F7 PUSH1 0x0 DUP6 DUP6 DUP6 DUP6 PUSH2 0x1757 JUMP JUMPDEST PUSH1 0x1 PUSH1 0x1 PUSH1 0xA0 SHL SUB DUP5 AND PUSH2 0x1602 JUMPI PUSH1 0x40 MLOAD PUSH4 0x2BFA23E7 PUSH1 0xE1 SHL DUP2 MSTORE PUSH1 0x0 PUSH1 0x4 DUP3 ADD MSTORE PUSH1 0x24 ADD PUSH2 0x6CA JUMP JUMPDEST PUSH1 0x1 PUSH1 0x1 PUSH1 0xA0 SHL SUB DUP6 AND PUSH2 0x162B JUMPI PUSH1 0x40 MLOAD PUSH3 0x6A0D45 PUSH1 0xE2 SHL DUP2 MSTORE PUSH1 0x0 PUSH1 0x4 DUP3 ADD MSTORE PUSH1 0x24 ADD PUSH2 0x6CA JUMP JUMPDEST PUSH1 0x40 DUP1 MLOAD PUSH1 0x1 DUP1 DUP3 MSTORE PUSH1 0x20 DUP3 ADD DUP7 SWAP1 MSTORE DUP2 DUP4 ADD SWAP1 DUP2 MSTORE PUSH1 0x60 DUP3 ADD DUP6 SWAP1 MSTORE PUSH1 0x80 DUP3 ADD SWAP1 SWAP3 MSTORE SWAP1 PUSH2 0x165D DUP8 DUP8 DUP5 DUP5 DUP8 PUSH2 0x1757 JUMP JUMPDEST POP POP POP POP POP POP POP JUMP JUMPDEST PUSH1 0x1 PUSH1 0x1 PUSH1 0xA0 SHL SUB DUP4 AND PUSH2 0x168F JUMPI PUSH1 0x40 MLOAD PUSH3 0x6A0D45 PUSH1 0xE2 SHL DUP2 MSTORE PUSH1 0x0 PUSH1 0x4 DUP3 ADD MSTORE PUSH1 0x24 ADD PUSH2 0x6CA JUMP JUMPDEST PUSH1 0x40 DUP1 MLOAD PUSH1 0x1 DUP1 DUP3 MSTORE PUSH1 0x20 DUP3 ADD DUP6 SWAP1 MSTORE DUP2 DUP4 ADD SWAP1 DUP2 MSTORE PUSH1 0x60 DUP3 ADD DUP5 SWAP1 MSTORE PUSH1 0xA0 DUP3 ADD SWAP1 SWAP3 MSTORE PUSH1 0x0 PUSH1 0x80 DUP3 ADD DUP2 DUP2 MSTORE SWAP2 SWAP3 SWAP2 PUSH2 0x137B SWAP2 DUP8 SWAP2 DUP6 SWAP1 DUP6 SWAP1 PUSH2 0x1757 JUMP JUMPDEST PUSH1 0x0 PUSH1 0x1 PUSH1 0x1 PUSH1 0xE0 SHL SUB NOT DUP3 AND PUSH4 0x6CDB3D13 PUSH1 0xE1 SHL EQ DUP1 PUSH2 0x16FF JUMPI POP PUSH1 0x1 PUSH1 0x1 PUSH1 0xE0 SHL SUB NOT DUP3 AND PUSH4 0x3A24D07 PUSH1 0xE2 SHL EQ JUMPDEST DUP1 PUSH2 0x4D9 JUMPI POP PUSH4 0x1FFC9A7 PUSH1 0xE0 SHL PUSH1 0x1 PUSH1 0x1 PUSH1 0xE0 SHL SUB NOT DUP4 AND EQ PUSH2 0x4D9 JUMP JUMPDEST PUSH2 0x1728 DUP3 DUP3 PUSH2 0xCE5 JUMP JUMPDEST PUSH2 0xD28 JUMPI PUSH1 0x40 MLOAD PUSH4 0xE2517D3F PUSH1 0xE0 SHL DUP2 MSTORE PUSH1 0x1 PUSH1 0x1 PUSH1 0xA0 SHL SUB DUP3 AND PUSH1 0x4 DUP3 ADD MSTORE PUSH1 0x24 DUP2 ADD DUP4 SWAP1 MSTORE PUSH1 0x44 ADD PUSH2 0x6CA JUMP JUMPDEST PUSH2 0x1763 DUP6 DUP6 DUP6 DUP6 PUSH2 0x17CD JUMP JUMPDEST PUSH1 0x1 PUSH1 0x1 PUSH1 0xA0 SHL SUB DUP5 AND ISZERO PUSH2 0x137B JUMPI DUP3 MLOAD CALLER SWAP1 PUSH1 0x1 SUB PUSH2 0x179C JUMPI PUSH1 0x20 DUP5 DUP2 ADD MLOAD SWAP1 DUP5 ADD MLOAD PUSH2 0x1795 DUP4 DUP10 DUP10 DUP6 DUP6 DUP10 PUSH2 0x17E1 JUMP JUMPDEST POP POP PUSH2 0x8E6 JUMP JUMPDEST PUSH2 0x8E6 DUP2 DUP8 DUP8 DUP8 DUP8 DUP8 PUSH2 0x1905 JUMP JUMPDEST PUSH1 0x6 SLOAD PUSH1 0xFF AND PUSH2 0x1292 JUMPI PUSH1 0x40 MLOAD PUSH4 0x8DFC202B PUSH1 0xE0 SHL DUP2 MSTORE PUSH1 0x4 ADD PUSH1 0x40 MLOAD DUP1 SWAP2 SUB SWAP1 REVERT JUMPDEST PUSH2 0x17D5 PUSH2 0x126E JUMP JUMPDEST PUSH2 0x7F7 DUP5 DUP5 DUP5 DUP5 PUSH2 0x19EE JUMP JUMPDEST PUSH1 0x1 PUSH1 0x1 PUSH1 0xA0 SHL SUB DUP5 AND EXTCODESIZE ISZERO PUSH2 0x8E6 JUMPI PUSH1 0x40 MLOAD PUSH4 0xF23A6E61 PUSH1 0xE0 SHL DUP2 MSTORE PUSH1 0x1 PUSH1 0x1 PUSH1 0xA0 SHL SUB DUP6 AND SWAP1 PUSH4 0xF23A6E61 SWAP1 PUSH2 0x1825 SWAP1 DUP10 SWAP1 DUP10 SWAP1 DUP9 SWAP1 DUP9 SWAP1 DUP9 SWAP1 PUSH1 0x4 ADD PUSH2 0x255C JUMP JUMPDEST PUSH1 0x20 PUSH1 0x40 MLOAD DUP1 DUP4 SUB DUP2 PUSH1 0x0 DUP8 GAS CALL SWAP3 POP POP POP DUP1 ISZERO PUSH2 0x1860 JUMPI POP PUSH1 0x40 DUP1 MLOAD PUSH1 0x1F RETURNDATASIZE SWAP1 DUP2 ADD PUSH1 0x1F NOT AND DUP3 ADD SWAP1 SWAP3 MSTORE PUSH2 0x185D SWAP2 DUP2 ADD SWAP1 PUSH2 0x25A1 JUMP JUMPDEST PUSH1 0x1 JUMPDEST PUSH2 0x18C9 JUMPI RETURNDATASIZE DUP1 DUP1 ISZERO PUSH2 0x188E JUMPI PUSH1 0x40 MLOAD SWAP2 POP PUSH1 0x1F NOT PUSH1 0x3F RETURNDATASIZE ADD AND DUP3 ADD PUSH1 0x40 MSTORE RETURNDATASIZE DUP3 MSTORE RETURNDATASIZE PUSH1 0x0 PUSH1 0x20 DUP5 ADD RETURNDATACOPY PUSH2 0x1893 JUMP JUMPDEST PUSH1 0x60 SWAP2 POP JUMPDEST POP DUP1 MLOAD PUSH1 0x0 SUB PUSH2 0x18C1 JUMPI PUSH1 0x40 MLOAD PUSH4 0x2BFA23E7 PUSH1 0xE1 SHL DUP2 MSTORE PUSH1 0x1 PUSH1 0x1 PUSH1 0xA0 SHL SUB DUP7 AND PUSH1 0x4 DUP3 ADD MSTORE PUSH1 0x24 ADD PUSH2 0x6CA JUMP JUMPDEST DUP1 MLOAD PUSH1 0x20 DUP3 ADD REVERT JUMPDEST PUSH1 0x1 PUSH1 0x1 PUSH1 0xE0 SHL SUB NOT DUP2 AND PUSH4 0xF23A6E61 PUSH1 0xE0 SHL EQ PUSH2 0x165D JUMPI PUSH1 0x40 MLOAD PUSH4 0x2BFA23E7 PUSH1 0xE1 SHL DUP2 MSTORE PUSH1 0x1 PUSH1 0x1 PUSH1 0xA0 SHL SUB DUP7 AND PUSH1 0x4 DUP3 ADD MSTORE PUSH1 0x24 ADD PUSH2 0x6CA JUMP JUMPDEST PUSH1 0x1 PUSH1 0x1 PUSH1 0xA0 SHL SUB DUP5 AND EXTCODESIZE ISZERO PUSH2 0x8E6 JUMPI PUSH1 0x40 MLOAD PUSH4 0xBC197C81 PUSH1 0xE0 SHL DUP2 MSTORE PUSH1 0x1 PUSH1 0x1 PUSH1 0xA0 SHL SUB DUP6 AND SWAP1 PUSH4 0xBC197C81 SWAP1 PUSH2 0x1949 SWAP1 DUP10 SWAP1 DUP10 SWAP1 DUP9 SWAP1 DUP9 SWAP1 DUP9 SWAP1 PUSH1 0x4 ADD PUSH2 0x25BE JUMP JUMPDEST PUSH1 0x20 PUSH1 0x40 MLOAD DUP1 DUP4 SUB DUP2 PUSH1 0x0 DUP8 GAS CALL SWAP3 POP POP POP DUP1 ISZERO PUSH2 0x1984 JUMPI POP PUSH1 0x40 DUP1 MLOAD PUSH1 0x1F RETURNDATASIZE SWAP1 DUP2 ADD PUSH1 0x1F NOT AND DUP3 ADD SWAP1 SWAP3 MSTORE PUSH2 0x1981 SWAP2 DUP2 ADD SWAP1 PUSH2 0x25A1 JUMP JUMPDEST PUSH1 0x1 JUMPDEST PUSH2 0x19B2 JUMPI RETURNDATASIZE DUP1 DUP1 ISZERO PUSH2 0x188E JUMPI PUSH1 0x40 MLOAD SWAP2 POP PUSH1 0x1F NOT PUSH1 0x3F RETURNDATASIZE ADD AND DUP3 ADD PUSH1 0x40 MSTORE RETURNDATASIZE DUP3 MSTORE RETURNDATASIZE PUSH1 0x0 PUSH1 0x20 DUP5 ADD RETURNDATACOPY PUSH2 0x1893 JUMP JUMPDEST PUSH1 0x1 PUSH1 0x1 PUSH1 0xE0 SHL SUB NOT DUP2 AND PUSH4 0xBC197C81 PUSH1 0xE0 SHL EQ PUSH2 0x165D JUMPI PUSH1 0x40 MLOAD PUSH4 0x2BFA23E7 PUSH1 0xE1 SHL DUP2 MSTORE PUSH1 0x1 PUSH1 0x1 PUSH1 0xA0 SHL SUB DUP7 AND PUSH1 0x4 DUP3 ADD MSTORE PUSH1 0x24 ADD PUSH2 0x6CA JUMP JUMPDEST PUSH2 0x19FA DUP5 DUP5 DUP5 DUP5 PUSH2 0x1AEB JUMP JUMPDEST PUSH1 0x1 PUSH1 0x1 PUSH1 0xA0 SHL SUB DUP5 AND PUSH2 0x1A83 JUMPI PUSH1 0x0 DUP1 JUMPDEST DUP4 MLOAD DUP2 LT ISZERO PUSH2 0x1A69 JUMPI PUSH1 0x20 DUP2 DUP2 MUL DUP5 DUP2 ADD DUP3 ADD MLOAD SWAP1 DUP7 ADD DUP3 ADD MLOAD PUSH1 0x0 SWAP1 DUP2 MSTORE PUSH1 0x3 SWAP1 SWAP3 MSTORE PUSH1 0x40 DUP3 KECCAK256 DUP1 SLOAD SWAP2 SWAP3 DUP4 SWAP3 PUSH2 0x1A45 SWAP1 DUP5 SWAP1 PUSH2 0x23AF JUMP JUMPDEST SWAP1 SWAP2 SSTORE POP PUSH2 0x1A55 SWAP1 POP DUP2 DUP5 PUSH2 0x23AF JUMP JUMPDEST SWAP3 POP POP DUP1 PUSH2 0x1A62 SWAP1 PUSH2 0x2411 JUMP JUMPDEST SWAP1 POP PUSH2 0x1A0C JUMP JUMPDEST POP DUP1 PUSH1 0x4 PUSH1 0x0 DUP3 DUP3 SLOAD PUSH2 0x1A7C SWAP2 SWAP1 PUSH2 0x23AF JUMP JUMPDEST SWAP1 SWAP2 SSTORE POP POP POP JUMPDEST PUSH1 0x1 PUSH1 0x1 PUSH1 0xA0 SHL SUB DUP4 AND PUSH2 0x7F7 JUMPI PUSH1 0x0 DUP1 JUMPDEST DUP4 MLOAD DUP2 LT ISZERO PUSH2 0x1ADA JUMPI PUSH1 0x20 DUP2 DUP2 MUL DUP5 DUP2 ADD DUP3 ADD MLOAD SWAP1 DUP7 ADD DUP3 ADD MLOAD PUSH1 0x0 SWAP1 DUP2 MSTORE PUSH1 0x3 SWAP1 SWAP3 MSTORE PUSH1 0x40 SWAP1 SWAP2 KECCAK256 DUP1 SLOAD DUP3 SWAP1 SUB SWAP1 SSTORE SWAP2 SWAP1 SWAP2 ADD SWAP1 PUSH2 0x1AD3 DUP2 PUSH2 0x2411 JUMP JUMPDEST SWAP1 POP PUSH2 0x1A95 JUMP JUMPDEST POP PUSH1 0x4 DUP1 SLOAD SWAP2 SWAP1 SWAP2 SUB SWAP1 SSTORE POP POP POP POP JUMP JUMPDEST DUP1 MLOAD DUP3 MLOAD EQ PUSH2 0x1B1A JUMPI DUP2 MLOAD DUP2 MLOAD PUSH1 0x40 MLOAD PUSH4 0x5B059991 PUSH1 0xE0 SHL DUP2 MSTORE PUSH1 0x4 DUP2 ADD SWAP3 SWAP1 SWAP3 MSTORE PUSH1 0x24 DUP3 ADD MSTORE PUSH1 0x44 ADD PUSH2 0x6CA JUMP JUMPDEST CALLER PUSH1 0x0 JUMPDEST DUP4 MLOAD DUP2 LT ISZERO PUSH2 0x1C29 JUMPI PUSH1 0x20 DUP2 DUP2 MUL DUP6 DUP2 ADD DUP3 ADD MLOAD SWAP1 DUP6 ADD SWAP1 SWAP2 ADD MLOAD PUSH1 0x1 PUSH1 0x1 PUSH1 0xA0 SHL SUB DUP9 AND ISZERO PUSH2 0x1BD1 JUMPI PUSH1 0x0 DUP3 DUP2 MSTORE PUSH1 0x20 DUP2 DUP2 MSTORE PUSH1 0x40 DUP1 DUP4 KECCAK256 PUSH1 0x1 PUSH1 0x1 PUSH1 0xA0 SHL SUB DUP13 AND DUP5 MSTORE SWAP1 SWAP2 MSTORE SWAP1 KECCAK256 SLOAD DUP2 DUP2 LT ISZERO PUSH2 0x1BAA JUMPI PUSH1 0x40 MLOAD PUSH4 0x3DEE4C5 PUSH1 0xE0 SHL DUP2 MSTORE PUSH1 0x1 PUSH1 0x1 PUSH1 0xA0 SHL SUB DUP11 AND PUSH1 0x4 DUP3 ADD MSTORE PUSH1 0x24 DUP2 ADD DUP3 SWAP1 MSTORE PUSH1 0x44 DUP2 ADD DUP4 SWAP1 MSTORE PUSH1 0x64 DUP2 ADD DUP5 SWAP1 MSTORE PUSH1 0x84 ADD PUSH2 0x6CA JUMP JUMPDEST PUSH1 0x0 DUP4 DUP2 MSTORE PUSH1 0x20 DUP2 DUP2 MSTORE PUSH1 0x40 DUP1 DUP4 KECCAK256 PUSH1 0x1 PUSH1 0x1 PUSH1 0xA0 SHL SUB DUP14 AND DUP5 MSTORE SWAP1 SWAP2 MSTORE SWAP1 KECCAK256 SWAP1 DUP3 SWAP1 SUB SWAP1 SSTORE JUMPDEST PUSH1 0x1 PUSH1 0x1 PUSH1 0xA0 SHL SUB DUP8 AND ISZERO PUSH2 0x1C16 JUMPI PUSH1 0x0 DUP3 DUP2 MSTORE PUSH1 0x20 DUP2 DUP2 MSTORE PUSH1 0x40 DUP1 DUP4 KECCAK256 PUSH1 0x1 PUSH1 0x1 PUSH1 0xA0 SHL SUB DUP12 AND DUP5 MSTORE SWAP1 SWAP2 MSTORE DUP2 KECCAK256 DUP1 SLOAD DUP4 SWAP3 SWAP1 PUSH2 0x1C10 SWAP1 DUP5 SWAP1 PUSH2 0x23AF JUMP JUMPDEST SWAP1 SWAP2 SSTORE POP POP JUMPDEST POP POP DUP1 PUSH2 0x1C22 SWAP1 PUSH2 0x2411 JUMP JUMPDEST SWAP1 POP PUSH2 0x1B1E JUMP JUMPDEST POP DUP3 MLOAD PUSH1 0x1 SUB PUSH2 0x1CAA JUMPI PUSH1 0x20 DUP4 ADD MLOAD PUSH1 0x0 SWAP1 PUSH1 0x20 DUP5 ADD MLOAD SWAP1 SWAP2 POP DUP6 PUSH1 0x1 PUSH1 0x1 PUSH1 0xA0 SHL SUB AND DUP8 PUSH1 0x1 PUSH1 0x1 PUSH1 0xA0 SHL SUB AND DUP5 PUSH1 0x1 PUSH1 0x1 PUSH1 0xA0 SHL SUB AND PUSH32 0xC3D58168C5AE7397731D063D5BBF3D657854427343F4C083240F7AACAA2D0F62 DUP6 DUP6 PUSH1 0x40 MLOAD PUSH2 0x1C9B SWAP3 SWAP2 SWAP1 SWAP2 DUP3 MSTORE PUSH1 0x20 DUP3 ADD MSTORE PUSH1 0x40 ADD SWAP1 JUMP JUMPDEST PUSH1 0x40 MLOAD DUP1 SWAP2 SUB SWAP1 LOG4 POP POP PUSH2 0x137B JUMP JUMPDEST DUP4 PUSH1 0x1 PUSH1 0x1 PUSH1 0xA0 SHL SUB AND DUP6 PUSH1 0x1 PUSH1 0x1 PUSH1 0xA0 SHL SUB AND DUP3 PUSH1 0x1 PUSH1 0x1 PUSH1 0xA0 SHL SUB AND PUSH32 0x4A39DC06D4C0DBC64B70AF90FD698A233A518AA5D07E595D983B8C0526C8F7FB DUP7 DUP7 PUSH1 0x40 MLOAD PUSH2 0x1CF9 SWAP3 SWAP2 SWAP1 PUSH2 0x261C JUMP JUMPDEST PUSH1 0x40 MLOAD DUP1 SWAP2 SUB SWAP1 LOG4 POP POP POP POP POP JUMP JUMPDEST DUP1 CALLDATALOAD PUSH1 0x1 PUSH1 0x1 PUSH1 0xA0 SHL SUB DUP2 AND DUP2 EQ PUSH2 0x1D1F JUMPI PUSH1 0x0 DUP1 REVERT JUMPDEST SWAP2 SWAP1 POP JUMP JUMPDEST PUSH1 0x0 DUP1 PUSH1 0x40 DUP4 DUP6 SUB SLT ISZERO PUSH2 0x1D37 JUMPI PUSH1 0x0 DUP1 REVERT JUMPDEST PUSH2 0x1D40 DUP4 PUSH2 0x1D08 JUMP JUMPDEST SWAP5 PUSH1 0x20 SWAP4 SWAP1 SWAP4 ADD CALLDATALOAD SWAP4 POP POP POP JUMP JUMPDEST PUSH1 0x1 PUSH1 0x1 PUSH1 0xE0 SHL SUB NOT DUP2 AND DUP2 EQ PUSH2 0x97D JUMPI PUSH1 0x0 DUP1 REVERT JUMPDEST PUSH1 0x0 PUSH1 0x20 DUP3 DUP5 SUB SLT ISZERO PUSH2 0x1D76 JUMPI PUSH1 0x0 DUP1 REVERT JUMPDEST DUP2 CALLDATALOAD PUSH2 0x649 DUP2 PUSH2 0x1D4E JUMP JUMPDEST PUSH1 0x0 DUP2 MLOAD DUP1 DUP5 MSTORE PUSH1 0x0 JUMPDEST DUP2 DUP2 LT ISZERO PUSH2 0x1DA7 JUMPI PUSH1 0x20 DUP2 DUP6 ADD DUP2 ADD MLOAD DUP7 DUP4 ADD DUP3 ADD MSTORE ADD PUSH2 0x1D8B JUMP JUMPDEST POP PUSH1 0x0 PUSH1 0x20 DUP3 DUP7 ADD ADD MSTORE PUSH1 0x20 PUSH1 0x1F NOT PUSH1 0x1F DUP4 ADD AND DUP6 ADD ADD SWAP2 POP POP SWAP3 SWAP2 POP POP JUMP JUMPDEST PUSH1 0x20 DUP2 MSTORE PUSH1 0x0 PUSH2 0x649 PUSH1 0x20 DUP4 ADD DUP5 PUSH2 0x1D81 JUMP JUMPDEST PUSH1 0x0 PUSH1 0x20 DUP3 DUP5 SUB SLT ISZERO PUSH2 0x1DEC JUMPI PUSH1 0x0 DUP1 REVERT JUMPDEST POP CALLDATALOAD SWAP2 SWAP1 POP JUMP JUMPDEST PUSH1 0x0 DUP1 PUSH1 0x0 PUSH1 0x60 DUP5 DUP7 SUB SLT ISZERO PUSH2 0x1E08 JUMPI PUSH1 0x0 DUP1 REVERT JUMPDEST PUSH2 0x1E11 DUP5 PUSH2 0x1D08 JUMP JUMPDEST SWAP6 PUSH1 0x20 DUP6 ADD CALLDATALOAD SWAP6 POP PUSH1 0x40 SWAP1 SWAP5 ADD CALLDATALOAD SWAP4 SWAP3 POP POP POP JUMP JUMPDEST PUSH1 0x0 DUP1 PUSH1 0x40 DUP4 DUP6 SUB SLT ISZERO PUSH2 0x1E39 JUMPI PUSH1 0x0 DUP1 REVERT JUMPDEST POP POP DUP1 CALLDATALOAD SWAP3 PUSH1 0x20 SWAP1 SWAP2 ADD CALLDATALOAD SWAP2 POP JUMP JUMPDEST PUSH4 0x4E487B71 PUSH1 0xE0 SHL PUSH1 0x0 MSTORE PUSH1 0x41 PUSH1 0x4 MSTORE PUSH1 0x24 PUSH1 0x0 REVERT JUMPDEST PUSH1 0x40 MLOAD PUSH1 0x1F DUP3 ADD PUSH1 0x1F NOT AND DUP2 ADD PUSH8 0xFFFFFFFFFFFFFFFF DUP2 GT DUP3 DUP3 LT OR ISZERO PUSH2 0x1E87 JUMPI PUSH2 0x1E87 PUSH2 0x1E48 JUMP JUMPDEST PUSH1 0x40 MSTORE SWAP2 SWAP1 POP JUMP JUMPDEST PUSH1 0x0 PUSH8 0xFFFFFFFFFFFFFFFF DUP3 GT ISZERO PUSH2 0x1EA9 JUMPI PUSH2 0x1EA9 PUSH2 0x1E48 JUMP JUMPDEST POP PUSH1 0x5 SHL PUSH1 0x20 ADD SWAP1 JUMP JUMPDEST PUSH1 0x0 DUP3 PUSH1 0x1F DUP4 ADD SLT PUSH2 0x1EC4 JUMPI PUSH1 0x0 DUP1 REVERT JUMPDEST DUP2 CALLDATALOAD PUSH1 0x20 PUSH2 0x1ED9 PUSH2 0x1ED4 DUP4 PUSH2 0x1E8F JUMP JUMPDEST PUSH2 0x1E5E JUMP JUMPDEST DUP3 DUP2 MSTORE PUSH1 0x5 SWAP3 SWAP1 SWAP3 SHL DUP5 ADD DUP2 ADD SWAP2 DUP2 DUP2 ADD SWAP1 DUP7 DUP5 GT ISZERO PUSH2 0x1EF8 JUMPI PUSH1 0x0 DUP1 REVERT JUMPDEST DUP3 DUP7 ADD JUMPDEST DUP5 DUP2 LT ISZERO PUSH2 0x1F13 JUMPI DUP1 CALLDATALOAD DUP4 MSTORE SWAP2 DUP4 ADD SWAP2 DUP4 ADD PUSH2 0x1EFC JUMP JUMPDEST POP SWAP7 SWAP6 POP POP POP POP POP POP JUMP JUMPDEST PUSH1 0x0 PUSH8 0xFFFFFFFFFFFFFFFF DUP4 GT ISZERO PUSH2 0x1F38 JUMPI PUSH2 0x1F38 PUSH2 0x1E48 JUMP JUMPDEST PUSH2 0x1F4B PUSH1 0x1F DUP5 ADD PUSH1 0x1F NOT AND PUSH1 0x20 ADD PUSH2 0x1E5E JUMP JUMPDEST SWAP1 POP DUP3 DUP2 MSTORE DUP4 DUP4 DUP4 ADD GT ISZERO PUSH2 0x1F5F JUMPI PUSH1 0x0 DUP1 REVERT JUMPDEST DUP3 DUP3 PUSH1 0x20 DUP4 ADD CALLDATACOPY PUSH1 0x0 PUSH1 0x20 DUP5 DUP4 ADD ADD MSTORE SWAP4 SWAP3 POP POP POP JUMP JUMPDEST PUSH1 0x0 DUP3 PUSH1 0x1F DUP4 ADD SLT PUSH2 0x1F87 JUMPI PUSH1 0x0 DUP1 REVERT JUMPDEST PUSH2 0x649 DUP4 DUP4 CALLDATALOAD PUSH1 0x20 DUP6 ADD PUSH2 0x1F1E JUMP JUMPDEST PUSH1 0x0 DUP1 PUSH1 0x0 DUP1 PUSH1 0x0 PUSH1 0xA0 DUP7 DUP9 SUB SLT ISZERO PUSH2 0x1FAE JUMPI PUSH1 0x0 DUP1 REVERT JUMPDEST PUSH2 0x1FB7 DUP7 PUSH2 0x1D08 JUMP JUMPDEST SWAP5 POP PUSH2 0x1FC5 PUSH1 0x20 DUP8 ADD PUSH2 0x1D08 JUMP JUMPDEST SWAP4 POP PUSH1 0x40 DUP7 ADD CALLDATALOAD PUSH8 0xFFFFFFFFFFFFFFFF DUP1 DUP3 GT ISZERO PUSH2 0x1FE2 JUMPI PUSH1 0x0 DUP1 REVERT JUMPDEST PUSH2 0x1FEE DUP10 DUP4 DUP11 ADD PUSH2 0x1EB3 JUMP JUMPDEST SWAP5 POP PUSH1 0x60 DUP9 ADD CALLDATALOAD SWAP2 POP DUP1 DUP3 GT ISZERO PUSH2 0x2004 JUMPI PUSH1 0x0 DUP1 REVERT JUMPDEST PUSH2 0x2010 DUP10 DUP4 DUP11 ADD PUSH2 0x1EB3 JUMP JUMPDEST SWAP4 POP PUSH1 0x80 DUP9 ADD CALLDATALOAD SWAP2 POP DUP1 DUP3 GT ISZERO PUSH2 0x2026 JUMPI PUSH1 0x0 DUP1 REVERT JUMPDEST POP PUSH2 0x2033 DUP9 DUP3 DUP10 ADD PUSH2 0x1F76 JUMP JUMPDEST SWAP2 POP POP SWAP3 SWAP6 POP SWAP3 SWAP6 SWAP1 SWAP4 POP JUMP JUMPDEST PUSH1 0x0 DUP1 PUSH1 0x40 DUP4 DUP6 SUB SLT ISZERO PUSH2 0x2053 JUMPI PUSH1 0x0 DUP1 REVERT JUMPDEST DUP3 CALLDATALOAD SWAP2 POP PUSH2 0x2063 PUSH1 0x20 DUP5 ADD PUSH2 0x1D08 JUMP JUMPDEST SWAP1 POP SWAP3 POP SWAP3 SWAP1 POP JUMP JUMPDEST PUSH1 0x0 DUP1 PUSH1 0x40 DUP4 DUP6 SUB SLT ISZERO PUSH2 0x207F JUMPI PUSH1 0x0 DUP1 REVERT JUMPDEST DUP3 CALLDATALOAD PUSH8 0xFFFFFFFFFFFFFFFF DUP1 DUP3 GT ISZERO PUSH2 0x2097 JUMPI PUSH1 0x0 DUP1 REVERT JUMPDEST DUP2 DUP6 ADD SWAP2 POP DUP6 PUSH1 0x1F DUP4 ADD SLT PUSH2 0x20AB JUMPI PUSH1 0x0 DUP1 REVERT JUMPDEST DUP2 CALLDATALOAD PUSH1 0x20 PUSH2 0x20BB PUSH2 0x1ED4 DUP4 PUSH2 0x1E8F JUMP JUMPDEST DUP3 DUP2 MSTORE PUSH1 0x5 SWAP3 SWAP1 SWAP3 SHL DUP5 ADD DUP2 ADD SWAP2 DUP2 DUP2 ADD SWAP1 DUP10 DUP5 GT ISZERO PUSH2 0x20DA JUMPI PUSH1 0x0 DUP1 REVERT JUMPDEST SWAP5 DUP3 ADD SWAP5 JUMPDEST DUP4 DUP7 LT ISZERO PUSH2 0x20FF JUMPI PUSH2 0x20F0 DUP7 PUSH2 0x1D08 JUMP JUMPDEST DUP3 MSTORE SWAP5 DUP3 ADD SWAP5 SWAP1 DUP3 ADD SWAP1 PUSH2 0x20DF JUMP JUMPDEST SWAP7 POP POP DUP7 ADD CALLDATALOAD SWAP3 POP POP DUP1 DUP3 GT ISZERO PUSH2 0x2115 JUMPI PUSH1 0x0 DUP1 REVERT JUMPDEST POP PUSH2 0x2122 DUP6 DUP3 DUP7 ADD PUSH2 0x1EB3 JUMP JUMPDEST SWAP2 POP POP SWAP3 POP SWAP3 SWAP1 POP JUMP JUMPDEST PUSH1 0x0 DUP2 MLOAD DUP1 DUP5 MSTORE PUSH1 0x20 DUP1 DUP6 ADD SWAP5 POP DUP1 DUP5 ADD PUSH1 0x0 JUMPDEST DUP4 DUP2 LT ISZERO PUSH2 0x215C JUMPI DUP2 MLOAD DUP8 MSTORE SWAP6 DUP3 ADD SWAP6 SWAP1 DUP3 ADD SWAP1 PUSH1 0x1 ADD PUSH2 0x2140 JUMP JUMPDEST POP SWAP5 SWAP6 SWAP5 POP POP POP POP POP JUMP JUMPDEST PUSH1 0x20 DUP2 MSTORE PUSH1 0x0 PUSH2 0x649 PUSH1 0x20 DUP4 ADD DUP5 PUSH2 0x212C JUMP JUMPDEST PUSH1 0x0 DUP1 PUSH1 0x0 PUSH1 0x60 DUP5 DUP7 SUB SLT ISZERO PUSH2 0x218F JUMPI PUSH1 0x0 DUP1 REVERT JUMPDEST DUP4 CALLDATALOAD SWAP3 POP PUSH1 0x20 DUP5 ADD CALLDATALOAD SWAP2 POP PUSH1 0x40 DUP5 ADD CALLDATALOAD PUSH8 0xFFFFFFFFFFFFFFFF DUP2 GT ISZERO PUSH2 0x21B4 JUMPI PUSH1 0x0 DUP1 REVERT JUMPDEST DUP5 ADD PUSH1 0x1F DUP2 ADD DUP7 SGT PUSH2 0x21C5 JUMPI PUSH1 0x0 DUP1 REVERT JUMPDEST PUSH2 0x21D4 DUP7 DUP3 CALLDATALOAD PUSH1 0x20 DUP5 ADD PUSH2 0x1F1E JUMP JUMPDEST SWAP2 POP POP SWAP3 POP SWAP3 POP SWAP3 JUMP JUMPDEST PUSH1 0x0 DUP1 PUSH1 0x0 PUSH1 0x60 DUP5 DUP7 SUB SLT ISZERO PUSH2 0x21F3 JUMPI PUSH1 0x0 DUP1 REVERT JUMPDEST DUP4 CALLDATALOAD SWAP3 POP PUSH2 0x2203 PUSH1 0x20 DUP6 ADD PUSH2 0x1D08 JUMP JUMPDEST SWAP2 POP PUSH1 0x40 DUP5 ADD CALLDATALOAD PUSH1 0x1 PUSH1 0x1 PUSH1 0x60 SHL SUB DUP2 AND DUP2 EQ PUSH2 0x221F JUMPI PUSH1 0x0 DUP1 REVERT JUMPDEST DUP1 SWAP2 POP POP SWAP3 POP SWAP3 POP SWAP3 JUMP JUMPDEST PUSH1 0x0 DUP1 PUSH1 0x40 DUP4 DUP6 SUB SLT ISZERO PUSH2 0x223D JUMPI PUSH1 0x0 DUP1 REVERT JUMPDEST PUSH2 0x2246 DUP4 PUSH2 0x1D08 JUMP JUMPDEST SWAP2 POP PUSH1 0x20 DUP4 ADD CALLDATALOAD DUP1 ISZERO ISZERO DUP2 EQ PUSH2 0x225B JUMPI PUSH1 0x0 DUP1 REVERT JUMPDEST DUP1 SWAP2 POP POP SWAP3 POP SWAP3 SWAP1 POP JUMP JUMPDEST PUSH1 0x0 DUP1 PUSH1 0x0 PUSH1 0x60 DUP5 DUP7 SUB SLT ISZERO PUSH2 0x227B JUMPI PUSH1 0x0 DUP1 REVERT JUMPDEST PUSH2 0x2284 DUP5 PUSH2 0x1D08 JUMP JUMPDEST SWAP3 POP PUSH1 0x20 DUP5 ADD CALLDATALOAD PUSH8 0xFFFFFFFFFFFFFFFF DUP1 DUP3 GT ISZERO PUSH2 0x22A1 JUMPI PUSH1 0x0 DUP1 REVERT JUMPDEST PUSH2 0x22AD DUP8 DUP4 DUP9 ADD PUSH2 0x1EB3 JUMP JUMPDEST SWAP4 POP PUSH1 0x40 DUP7 ADD CALLDATALOAD SWAP2 POP DUP1 DUP3 GT ISZERO PUSH2 0x22C3 JUMPI PUSH1 0x0 DUP1 REVERT JUMPDEST POP PUSH2 0x21D4 DUP7 DUP3 DUP8 ADD PUSH2 0x1EB3 JUMP JUMPDEST PUSH1 0x0 DUP1 PUSH1 0x40 DUP4 DUP6 SUB SLT ISZERO PUSH2 0x22E3 JUMPI PUSH1 0x0 DUP1 REVERT JUMPDEST PUSH2 0x22EC DUP4 PUSH2 0x1D08 JUMP JUMPDEST SWAP2 POP PUSH2 0x2063 PUSH1 0x20 DUP5 ADD PUSH2 0x1D08 JUMP JUMPDEST PUSH1 0x0 DUP1 PUSH1 0x0 DUP1 PUSH1 0x0 PUSH1 0xA0 DUP7 DUP9 SUB SLT ISZERO PUSH2 0x2312 JUMPI PUSH1 0x0 DUP1 REVERT JUMPDEST PUSH2 0x231B DUP7 PUSH2 0x1D08 JUMP JUMPDEST SWAP5 POP PUSH2 0x2329 PUSH1 0x20 DUP8 ADD PUSH2 0x1D08 JUMP JUMPDEST SWAP4 POP PUSH1 0x40 DUP7 ADD CALLDATALOAD SWAP3 POP PUSH1 0x60 DUP7 ADD CALLDATALOAD SWAP2 POP PUSH1 0x80 DUP7 ADD CALLDATALOAD PUSH8 0xFFFFFFFFFFFFFFFF DUP2 GT ISZERO PUSH2 0x2353 JUMPI PUSH1 0x0 DUP1 REVERT JUMPDEST PUSH2 0x2033 DUP9 DUP3 DUP10 ADD PUSH2 0x1F76 JUMP JUMPDEST PUSH1 0x1 DUP2 DUP2 SHR SWAP1 DUP3 AND DUP1 PUSH2 0x2373 JUMPI PUSH1 0x7F DUP3 AND SWAP2 POP JUMPDEST PUSH1 0x20 DUP3 LT DUP2 SUB PUSH2 0x2393 JUMPI PUSH4 0x4E487B71 PUSH1 0xE0 SHL PUSH1 0x0 MSTORE PUSH1 0x22 PUSH1 0x4 MSTORE PUSH1 0x24 PUSH1 0x0 REVERT JUMPDEST POP SWAP2 SWAP1 POP JUMP JUMPDEST PUSH4 0x4E487B71 PUSH1 0xE0 SHL PUSH1 0x0 MSTORE PUSH1 0x11 PUSH1 0x4 MSTORE PUSH1 0x24 PUSH1 0x0 REVERT JUMPDEST DUP1 DUP3 ADD DUP1 DUP3 GT ISZERO PUSH2 0x4D9 JUMPI PUSH2 0x4D9 PUSH2 0x2399 JUMP JUMPDEST DUP1 DUP3 MUL DUP2 ISZERO DUP3 DUP3 DIV DUP5 EQ OR PUSH2 0x4D9 JUMPI PUSH2 0x4D9 PUSH2 0x2399 JUMP JUMPDEST PUSH1 0x0 DUP3 PUSH2 0x23F6 JUMPI PUSH4 0x4E487B71 PUSH1 0xE0 SHL PUSH1 0x0 MSTORE PUSH1 0x12 PUSH1 0x4 MSTORE PUSH1 0x24 PUSH1 0x0 REVERT JUMPDEST POP DIV SWAP1 JUMP JUMPDEST PUSH4 0x4E487B71 PUSH1 0xE0 SHL PUSH1 0x0 MSTORE PUSH1 0x32 PUSH1 0x4 MSTORE PUSH1 0x24 PUSH1 0x0 REVERT JUMPDEST PUSH1 0x0 PUSH1 0x1 DUP3 ADD PUSH2 0x2423 JUMPI PUSH2 0x2423 PUSH2 0x2399 JUMP JUMPDEST POP PUSH1 0x1 ADD SWAP1 JUMP JUMPDEST PUSH1 0x1F DUP3 GT ISZERO PUSH2 0x946 JUMPI PUSH1 0x0 DUP2 DUP2 MSTORE PUSH1 0x20 DUP2 KECCAK256 PUSH1 0x1F DUP6 ADD PUSH1 0x5 SHR DUP2 ADD PUSH1 0x20 DUP7 LT ISZERO PUSH2 0x2451 JUMPI POP DUP1 JUMPDEST PUSH1 0x1F DUP6 ADD PUSH1 0x5 SHR DUP3 ADD SWAP2 POP JUMPDEST DUP2 DUP2 LT ISZERO PUSH2 0x8E6 JUMPI DUP3 DUP2 SSTORE PUSH1 0x1 ADD PUSH2 0x245D JUMP JUMPDEST DUP2 MLOAD PUSH8 0xFFFFFFFFFFFFFFFF DUP2 GT ISZERO PUSH2 0x248A JUMPI PUSH2 0x248A PUSH2 0x1E48 JUMP JUMPDEST PUSH2 0x249E DUP2 PUSH2 0x2498 DUP5 SLOAD PUSH2 0x235F JUMP JUMPDEST DUP5 PUSH2 0x242A JUMP JUMPDEST PUSH1 0x20 DUP1 PUSH1 0x1F DUP4 GT PUSH1 0x1 DUP2 EQ PUSH2 0x24D3 JUMPI PUSH1 0x0 DUP5 ISZERO PUSH2 0x24BB JUMPI POP DUP6 DUP4 ADD MLOAD JUMPDEST PUSH1 0x0 NOT PUSH1 0x3 DUP7 SWAP1 SHL SHR NOT AND PUSH1 0x1 DUP6 SWAP1 SHL OR DUP6 SSTORE PUSH2 0x8E6 JUMP JUMPDEST PUSH1 0x0 DUP6 DUP2 MSTORE PUSH1 0x20 DUP2 KECCAK256 PUSH1 0x1F NOT DUP7 AND SWAP2 JUMPDEST DUP3 DUP2 LT ISZERO PUSH2 0x2502 JUMPI DUP9 DUP7 ADD MLOAD DUP3 SSTORE SWAP5 DUP5 ADD SWAP5 PUSH1 0x1 SWAP1 SWAP2 ADD SWAP1 DUP5 ADD PUSH2 0x24E3 JUMP JUMPDEST POP DUP6 DUP3 LT ISZERO PUSH2 0x2520 JUMPI DUP8 DUP6 ADD MLOAD PUSH1 0x0 NOT PUSH1 0x3 DUP9 SWAP1 SHL PUSH1 0xF8 AND SHR NOT AND DUP2 SSTORE JUMPDEST POP POP POP POP POP PUSH1 0x1 SWAP1 DUP2 SHL ADD SWAP1 SSTORE POP JUMP JUMPDEST DUP3 DUP2 MSTORE PUSH1 0x40 PUSH1 0x20 DUP3 ADD MSTORE PUSH1 0x0 PUSH2 0xD83 PUSH1 0x40 DUP4 ADD DUP5 PUSH2 0x1D81 JUMP JUMPDEST DUP2 DUP2 SUB DUP2 DUP2 GT ISZERO PUSH2 0x4D9 JUMPI PUSH2 0x4D9 PUSH2 0x2399 JUMP JUMPDEST PUSH1 0x1 PUSH1 0x1 PUSH1 0xA0 SHL SUB DUP7 DUP2 AND DUP3 MSTORE DUP6 AND PUSH1 0x20 DUP3 ADD MSTORE PUSH1 0x40 DUP2 ADD DUP5 SWAP1 MSTORE PUSH1 0x60 DUP2 ADD DUP4 SWAP1 MSTORE PUSH1 0xA0 PUSH1 0x80 DUP3 ADD DUP2 SWAP1 MSTORE PUSH1 0x0 SWAP1 PUSH2 0x2596 SWAP1 DUP4 ADD DUP5 PUSH2 0x1D81 JUMP JUMPDEST SWAP8 SWAP7 POP POP POP POP POP POP POP JUMP JUMPDEST PUSH1 0x0 PUSH1 0x20 DUP3 DUP5 SUB SLT ISZERO PUSH2 0x25B3 JUMPI PUSH1 0x0 DUP1 REVERT JUMPDEST DUP2 MLOAD PUSH2 0x649 DUP2 PUSH2 0x1D4E JUMP JUMPDEST PUSH1 0x1 PUSH1 0x1 PUSH1 0xA0 SHL SUB DUP7 DUP2 AND DUP3 MSTORE DUP6 AND PUSH1 0x20 DUP3 ADD MSTORE PUSH1 0xA0 PUSH1 0x40 DUP3 ADD DUP2 SWAP1 MSTORE PUSH1 0x0 SWAP1 PUSH2 0x25EA SWAP1 DUP4 ADD DUP7 PUSH2 0x212C JUMP JUMPDEST DUP3 DUP2 SUB PUSH1 0x60 DUP5 ADD MSTORE PUSH2 0x25FC DUP2 DUP7 PUSH2 0x212C JUMP JUMPDEST SWAP1 POP DUP3 DUP2 SUB PUSH1 0x80 DUP5 ADD MSTORE PUSH2 0x2610 DUP2 DUP6 PUSH2 0x1D81 JUMP JUMPDEST SWAP9 SWAP8 POP POP POP POP POP POP POP POP JUMP JUMPDEST PUSH1 0x40 DUP2 MSTORE PUSH1 0x0 PUSH2 0x262F PUSH1 0x40 DUP4 ADD DUP6 PUSH2 0x212C JUMP JUMPDEST DUP3 DUP2 SUB PUSH1 0x20 DUP5 ADD MSTORE PUSH2 0x2641 DUP2 DUP6 PUSH2 0x212C JUMP JUMPDEST SWAP6 SWAP5 POP POP POP POP POP JUMP INVALID SWAP16 0x2D CREATE INVALID 0xD2 0xC7 PUSH23 0x48DE5860A4CC508CD0818C85B8B8A1AB4CEEEF8D981C89 JUMP 0xA6 LOG2 PUSH5 0x6970667358 0x22 SLT KECCAK256 0xEB CODESIZE TIMESTAMP 0x1E SWAP11 LT 0x25 0xE6 0xD5 EXP 0xE1 0xC PUSH24 0x31973A3FA67A6D0A8C9B059631592BA6B1AE9064736F6C63 NUMBER STOP ADDMOD EQ STOP CALLER "},"methodIdentifiers":{"DEFAULT_ADMIN_ROLE()":"a217fddf","MINTER_ROLE()":"d5391393","PAUSER_ROLE()":"e63ab1e9","availableSupply(uint256)":"d5c32ca4","balanceOf(address,uint256)":"00fdd58e","balanceOfBatch(address[],uint256[])":"4e1273f4","burn(address,uint256,uint256)":"f5298aca","createToken(uint256,uint256,string)":"5f78f436","exists(uint256)":"4f558e79","getRoleAdmin(bytes32)":"248a9ca3","grantRole(bytes32,address)":"2f2ff15d","hasRole(bytes32,address)":"91d14854","isApprovedForAll(address,address)":"e985e9c5","maxSupply(uint256)":"869f7594","mint(address,uint256,uint256)":"156e29f6","mintBatch(address,uint256[],uint256[])":"d81d0a15","name()":"06fdde03","pause()":"8456cb59","paused()":"5c975abb","renounceRole(bytes32,address)":"36568abe","revokeRole(bytes32,address)":"d547741f","royaltyInfo(uint256,uint256)":"2a55205a","safeBatchTransferFrom(address,address,uint256[],uint256[],bytes)":"2eb2c2d6","safeTransferFrom(address,address,uint256,uint256,bytes)":"f242432a","setApprovalForAll(address,bool)":"a22cb465","setRoyalty(uint256,address,uint96)":"80c8d690","supportsInterface(bytes4)":"01ffc9a7","symbol()":"95d89b41","totalSupply()":"18160ddd","totalSupply(uint256)":"bd85b039","unpause()":"3f4ba83a","uri(uint256)":"0e89341c"}}}}}